{
	"Registration.sol": {
		"SubjectRegistration": {
			"abi": [
				{
					"inputs": [],
					"stateMutability": "nonpayable",
					"type": "constructor"
				},
				{
					"inputs": [],
					"name": "MostPopularCourseId",
					"outputs": [
						{
							"internalType": "uint256",
							"name": "mostPopularCourseId_",
							"type": "uint256"
						}
					],
					"stateMutability": "view",
					"type": "function"
				},
				{
					"inputs": [
						{
							"internalType": "uint256",
							"name": "",
							"type": "uint256"
						}
					],
					"name": "courses",
					"outputs": [
						{
							"internalType": "uint256",
							"name": "",
							"type": "uint256"
						}
					],
					"stateMutability": "view",
					"type": "function"
				},
				{
					"inputs": [
						{
							"internalType": "uint256",
							"name": "courseID",
							"type": "uint256"
						},
						{
							"internalType": "string",
							"name": "studentID",
							"type": "string"
						}
					],
					"name": "register",
					"outputs": [],
					"stateMutability": "nonpayable",
					"type": "function"
				},
				{
					"inputs": [],
					"name": "result",
					"outputs": [
						{
							"internalType": "string",
							"name": "result_",
							"type": "string"
						}
					],
					"stateMutability": "view",
					"type": "function"
				},
				{
					"inputs": [
						{
							"internalType": "address",
							"name": "",
							"type": "address"
						}
					],
					"name": "student",
					"outputs": [
						{
							"internalType": "bool",
							"name": "registered",
							"type": "bool"
						},
						{
							"internalType": "string",
							"name": "studentID",
							"type": "string"
						},
						{
							"internalType": "uint256",
							"name": "courseID",
							"type": "uint256"
						},
						{
							"internalType": "string",
							"name": "result",
							"type": "string"
						}
					],
					"stateMutability": "view",
					"type": "function"
				}
			],
			"devdoc": {
				"kind": "dev",
				"methods": {},
				"version": 1
			},
			"evm": {
				"assembly": "    /* \"Registration.sol\":64:2316  contract SubjectRegistration {... */\n  mstore(0x40, 0x80)\n    /* \"Registration.sol\":766:878  constructor() {... */\n  callvalue\n  dup1\n  iszero\n  tag_1\n  jumpi\n  0x00\n  dup1\n  revert\ntag_1:\n  pop\n    /* \"Registration.sol\":806:812  uint i */\n  0x00\n    /* \"Registration.sol\":801:871  for (uint i = 0; i < 5; i++) {... */\ntag_4:\n    /* \"Registration.sol\":822:823  5 */\n  0x05\n    /* \"Registration.sol\":818:819  i */\n  dup2\n    /* \"Registration.sol\":818:823  i < 5 */\n  lt\n    /* \"Registration.sol\":801:871  for (uint i = 0; i < 5; i++) {... */\n  iszero\n  tag_5\n  jumpi\n    /* \"Registration.sol\":858:859  0 */\n  0x00\n    /* \"Registration.sol\":845:852  courses */\n  0x01\n    /* \"Registration.sol\":845:855  courses[i] */\n  0x00\n    /* \"Registration.sol\":853:854  i */\n  dup4\n    /* \"Registration.sol\":845:855  courses[i] */\n  dup2\n  mstore\n  0x20\n  add\n  swap1\n  dup2\n  mstore\n  0x20\n  add\n  0x00\n  keccak256\n    /* \"Registration.sol\":845:859  courses[i] = 0 */\n  dup2\n  swap1\n  sstore\n  pop\n    /* \"Registration.sol\":825:828  i++ */\n  dup1\n  dup1\n  tag_7\n  swap1\n  tag_8\n  jump\t// in\ntag_7:\n  swap2\n  pop\n  pop\n    /* \"Registration.sol\":801:871  for (uint i = 0; i < 5; i++) {... */\n  jump(tag_4)\ntag_5:\n  pop\n    /* \"Registration.sol\":64:2316  contract SubjectRegistration {... */\n  jump(tag_9)\n    /* \"#utility.yul\":7:187   */\ntag_10:\n    /* \"#utility.yul\":55:132   */\n  0x4e487b7100000000000000000000000000000000000000000000000000000000\n    /* \"#utility.yul\":52:53   */\n  0x00\n    /* \"#utility.yul\":45:133   */\n  mstore\n    /* \"#utility.yul\":152:156   */\n  0x11\n    /* \"#utility.yul\":149:150   */\n  0x04\n    /* \"#utility.yul\":142:157   */\n  mstore\n    /* \"#utility.yul\":176:180   */\n  0x24\n    /* \"#utility.yul\":173:174   */\n  0x00\n    /* \"#utility.yul\":166:181   */\n  revert\n    /* \"#utility.yul\":193:270   */\ntag_11:\n    /* \"#utility.yul\":230:237   */\n  0x00\n    /* \"#utility.yul\":259:264   */\n  dup2\n    /* \"#utility.yul\":248:264   */\n  swap1\n  pop\n    /* \"#utility.yul\":193:270   */\n  swap2\n  swap1\n  pop\n  jump\t// out\n    /* \"#utility.yul\":276:509   */\ntag_8:\n    /* \"#utility.yul\":315:318   */\n  0x00\n    /* \"#utility.yul\":338:362   */\n  tag_16\n    /* \"#utility.yul\":356:361   */\n  dup3\n    /* \"#utility.yul\":338:362   */\n  tag_11\n  jump\t// in\ntag_16:\n    /* \"#utility.yul\":329:362   */\n  swap2\n  pop\n    /* \"#utility.yul\":384:450   */\n  0xffffffffffffffffffffffffffffffffffffffffffffffffffffffffffffffff\n    /* \"#utility.yul\":377:382   */\n  dup3\n    /* \"#utility.yul\":374:451   */\n  sub\n    /* \"#utility.yul\":371:474   */\n  tag_17\n  jumpi\n    /* \"#utility.yul\":454:472   */\n  tag_18\n  tag_10\n  jump\t// in\ntag_18:\n    /* \"#utility.yul\":371:474   */\ntag_17:\n    /* \"#utility.yul\":501:502   */\n  0x01\n    /* \"#utility.yul\":494:499   */\n  dup3\n    /* \"#utility.yul\":490:503   */\n  add\n    /* \"#utility.yul\":483:503   */\n  swap1\n  pop\n    /* \"#utility.yul\":276:509   */\n  swap2\n  swap1\n  pop\n  jump\t// out\n    /* \"Registration.sol\":64:2316  contract SubjectRegistration {... */\ntag_9:\n  dataSize(sub_0)\n  dup1\n  dataOffset(sub_0)\n  0x00\n  codecopy\n  0x00\n  return\nstop\n\nsub_0: assembly {\n        /* \"Registration.sol\":64:2316  contract SubjectRegistration {... */\n      mstore(0x40, 0x80)\n      callvalue\n      dup1\n      iszero\n      tag_1\n      jumpi\n      0x00\n      dup1\n      revert\n    tag_1:\n      pop\n      jumpi(tag_2, lt(calldatasize, 0x04))\n      shr(0xe0, calldataload(0x00))\n      dup1\n      0x65372147\n      eq\n      tag_3\n      jumpi\n      dup1\n      0x96f979d2\n      eq\n      tag_4\n      jumpi\n      dup1\n      0xa00fd3c8\n      eq\n      tag_5\n      jumpi\n      dup1\n      0xdaadd00f\n      eq\n      tag_6\n      jumpi\n      dup1\n      0xe6f7eb7c\n      eq\n      tag_7\n      jumpi\n    tag_2:\n      0x00\n      dup1\n      revert\n        /* \"Registration.sol\":2155:2313  function result() public view returns (string memory result_){... */\n    tag_3:\n      tag_8\n      tag_9\n      jump\t// in\n    tag_8:\n      mload(0x40)\n      tag_10\n      swap2\n      swap1\n      tag_11\n      jump\t// in\n    tag_10:\n      mload(0x40)\n      dup1\n      swap2\n      sub\n      swap1\n      return\n        /* \"Registration.sol\":652:688  mapping(uint => uint) public courses */\n    tag_4:\n      tag_12\n      0x04\n      dup1\n      calldatasize\n      sub\n      dup2\n      add\n      swap1\n      tag_13\n      swap2\n      swap1\n      tag_14\n      jump\t// in\n    tag_13:\n      tag_15\n      jump\t// in\n    tag_12:\n      mload(0x40)\n      tag_16\n      swap2\n      swap1\n      tag_17\n      jump\t// in\n    tag_16:\n      mload(0x40)\n      dup1\n      swap2\n      sub\n      swap1\n      return\n        /* \"Registration.sol\":911:1539  function register(uint courseID, string memory studentID) public {... */\n    tag_5:\n      tag_18\n      0x04\n      dup1\n      calldatasize\n      sub\n      dup2\n      add\n      swap1\n      tag_19\n      swap2\n      swap1\n      tag_20\n      jump\t// in\n    tag_19:\n      tag_21\n      jump\t// in\n    tag_18:\n      stop\n        /* \"Registration.sol\":533:575  mapping(address => Student) public student */\n    tag_6:\n      tag_22\n      0x04\n      dup1\n      calldatasize\n      sub\n      dup2\n      add\n      swap1\n      tag_23\n      swap2\n      swap1\n      tag_24\n      jump\t// in\n    tag_23:\n      tag_25\n      jump\t// in\n    tag_22:\n      mload(0x40)\n      tag_26\n      swap5\n      swap4\n      swap3\n      swap2\n      swap1\n      tag_27\n      jump\t// in\n    tag_26:\n      mload(0x40)\n      dup1\n      swap2\n      sub\n      swap1\n      return\n        /* \"Registration.sol\":2008:2147  function MostPopularCourseId() public view returns (uint mostPopularCourseId_){... */\n    tag_7:\n      tag_28\n      tag_29\n      jump\t// in\n    tag_28:\n      mload(0x40)\n      tag_30\n      swap2\n      swap1\n      tag_17\n      jump\t// in\n    tag_30:\n      mload(0x40)\n      dup1\n      swap2\n      sub\n      swap1\n      return\n        /* \"Registration.sol\":2155:2313  function result() public view returns (string memory result_){... */\n    tag_9:\n        /* \"Registration.sol\":2194:2215  string memory result_ */\n      0x60\n        /* \"Registration.sol\":2227:2249  Student storage sender */\n      0x00\n        /* \"Registration.sol\":2252:2259  student */\n      dup1\n        /* \"Registration.sol\":2252:2271  student[msg.sender] */\n      0x00\n        /* \"Registration.sol\":2260:2270  msg.sender */\n      caller\n        /* \"Registration.sol\":2252:2271  student[msg.sender] */\n      0xffffffffffffffffffffffffffffffffffffffff\n      and\n      0xffffffffffffffffffffffffffffffffffffffff\n      and\n      dup2\n      mstore\n      0x20\n      add\n      swap1\n      dup2\n      mstore\n      0x20\n      add\n      0x00\n      keccak256\n        /* \"Registration.sol\":2227:2271  Student storage sender = student[msg.sender] */\n      swap1\n      pop\n        /* \"Registration.sol\":2292:2298  sender */\n      dup1\n        /* \"Registration.sol\":2292:2305  sender.result */\n      0x03\n      add\n        /* \"Registration.sol\":2282:2305  result_ = sender.result */\n      dup1\n      sload\n      tag_32\n      swap1\n      tag_33\n      jump\t// in\n    tag_32:\n      dup1\n      0x1f\n      add\n      0x20\n      dup1\n      swap2\n      div\n      mul\n      0x20\n      add\n      mload(0x40)\n      swap1\n      dup2\n      add\n      0x40\n      mstore\n      dup1\n      swap3\n      swap2\n      swap1\n      dup2\n      dup2\n      mstore\n      0x20\n      add\n      dup3\n      dup1\n      sload\n      tag_34\n      swap1\n      tag_33\n      jump\t// in\n    tag_34:\n      dup1\n      iszero\n      tag_35\n      jumpi\n      dup1\n      0x1f\n      lt\n      tag_36\n      jumpi\n      0x0100\n      dup1\n      dup4\n      sload\n      div\n      mul\n      dup4\n      mstore\n      swap2\n      0x20\n      add\n      swap2\n      jump(tag_35)\n    tag_36:\n      dup3\n      add\n      swap2\n      swap1\n      0x00\n      mstore\n      keccak256(0x00, 0x20)\n      swap1\n    tag_37:\n      dup2\n      sload\n      dup2\n      mstore\n      swap1\n      0x01\n      add\n      swap1\n      0x20\n      add\n      dup1\n      dup4\n      gt\n      tag_37\n      jumpi\n      dup3\n      swap1\n      sub\n      0x1f\n      and\n      dup3\n      add\n      swap2\n    tag_35:\n      pop\n      pop\n      pop\n      pop\n      pop\n      swap2\n      pop\n        /* \"Registration.sol\":2216:2313  {... */\n      pop\n        /* \"Registration.sol\":2155:2313  function result() public view returns (string memory result_){... */\n      swap1\n      jump\t// out\n        /* \"Registration.sol\":652:688  mapping(uint => uint) public courses */\n    tag_15:\n      mstore(0x20, 0x01)\n      dup1\n      0x00\n      mstore\n      keccak256(0x00, 0x40)\n      0x00\n      swap2\n      pop\n      swap1\n      pop\n      sload\n      dup2\n      jump\t// out\n        /* \"Registration.sol\":911:1539  function register(uint courseID, string memory studentID) public {... */\n    tag_21:\n        /* \"Registration.sol\":1007:1008  0 */\n      0x00\n        /* \"Registration.sol\":995:1003  courseID */\n      dup3\n        /* \"Registration.sol\":995:1008  courseID >= 0 */\n      lt\n      iszero\n        /* \"Registration.sol\":987:1049  require(courseID >= 0, 'The id must be greater or equal to 0') */\n      tag_39\n      jumpi\n      mload(0x40)\n      0x08c379a000000000000000000000000000000000000000000000000000000000\n      dup2\n      mstore\n      0x04\n      add\n      tag_40\n      swap1\n      tag_41\n      jump\t// in\n    tag_40:\n      mload(0x40)\n      dup1\n      swap2\n      sub\n      swap1\n      revert\n    tag_39:\n        /* \"Registration.sol\":1080:1081  4 */\n      0x04\n        /* \"Registration.sol\":1068:1076  courseID */\n      dup3\n        /* \"Registration.sol\":1068:1081  courseID <= 4 */\n      gt\n      iszero\n        /* \"Registration.sol\":1060:1119  require(courseID <= 4, 'The id must be less or equal to 4') */\n      tag_42\n      jumpi\n      mload(0x40)\n      0x08c379a000000000000000000000000000000000000000000000000000000000\n      dup2\n      mstore\n      0x04\n      add\n      tag_43\n      swap1\n      tag_44\n      jump\t// in\n    tag_43:\n      mload(0x40)\n      dup1\n      swap2\n      sub\n      swap1\n      revert\n    tag_42:\n        /* \"Registration.sol\":1132:1154  Student storage sender */\n      0x00\n        /* \"Registration.sol\":1157:1164  student */\n      dup1\n        /* \"Registration.sol\":1157:1176  student[msg.sender] */\n      0x00\n        /* \"Registration.sol\":1165:1175  msg.sender */\n      caller\n        /* \"Registration.sol\":1157:1176  student[msg.sender] */\n      0xffffffffffffffffffffffffffffffffffffffff\n      and\n      0xffffffffffffffffffffffffffffffffffffffff\n      and\n      dup2\n      mstore\n      0x20\n      add\n      swap1\n      dup2\n      mstore\n      0x20\n      add\n      0x00\n      keccak256\n        /* \"Registration.sol\":1132:1176  Student storage sender = student[msg.sender] */\n      swap1\n      pop\n        /* \"Registration.sol\":1196:1202  sender */\n      dup1\n        /* \"Registration.sol\":1196:1213  sender.registered */\n      0x00\n      add\n      0x00\n      swap1\n      sload\n      swap1\n      0x0100\n      exp\n      swap1\n      div\n      0xff\n      and\n        /* \"Registration.sol\":1195:1213  !sender.registered */\n      iszero\n        /* \"Registration.sol\":1187:1242  require(!sender.registered, \"Already choose a course.\") */\n      tag_45\n      jumpi\n      mload(0x40)\n      0x08c379a000000000000000000000000000000000000000000000000000000000\n      dup2\n      mstore\n      0x04\n      add\n      tag_46\n      swap1\n      tag_47\n      jump\t// in\n    tag_46:\n      mload(0x40)\n      dup1\n      swap2\n      sub\n      swap1\n      revert\n    tag_45:\n        /* \"Registration.sol\":1273:1277  true */\n      0x01\n        /* \"Registration.sol\":1253:1259  sender */\n      dup2\n        /* \"Registration.sol\":1253:1270  sender.registered */\n      0x00\n      add\n      0x00\n        /* \"Registration.sol\":1253:1277  sender.registered = true */\n      0x0100\n      exp\n      dup2\n      sload\n      dup2\n      0xff\n      mul\n      not\n      and\n      swap1\n      dup4\n      iszero\n      iszero\n      mul\n      or\n      swap1\n      sstore\n      pop\n        /* \"Registration.sol\":1307:1316  studentID */\n      dup2\n        /* \"Registration.sol\":1288:1294  sender */\n      dup2\n        /* \"Registration.sol\":1288:1304  sender.studentID */\n      0x01\n      add\n        /* \"Registration.sol\":1288:1316  sender.studentID = studentID */\n      swap1\n      dup2\n      tag_48\n      swap2\n      swap1\n      tag_49\n      jump\t// in\n    tag_48:\n      pop\n        /* \"Registration.sol\":1345:1353  courseID */\n      dup3\n        /* \"Registration.sol\":1327:1333  sender */\n      dup2\n        /* \"Registration.sol\":1327:1342  sender.courseID */\n      0x02\n      add\n        /* \"Registration.sol\":1327:1353  sender.courseID = courseID */\n      dup2\n      swap1\n      sstore\n      pop\n        /* \"Registration.sol\":1385:1386  1 */\n      0x01\n        /* \"Registration.sol\":1364:1371  courses */\n      dup1\n        /* \"Registration.sol\":1364:1381  courses[courseID] */\n      0x00\n        /* \"Registration.sol\":1372:1380  courseID */\n      dup6\n        /* \"Registration.sol\":1364:1381  courses[courseID] */\n      dup2\n      mstore\n      0x20\n      add\n      swap1\n      dup2\n      mstore\n      0x20\n      add\n      0x00\n      keccak256\n      0x00\n        /* \"Registration.sol\":1364:1386  courses[courseID] += 1 */\n      dup3\n      dup3\n      sload\n      tag_50\n      swap2\n      swap1\n      tag_51\n      jump\t// in\n    tag_50:\n      swap3\n      pop\n      pop\n      dup2\n      swap1\n      sstore\n      pop\n        /* \"Registration.sol\":1432:1434  10 */\n      0x0a\n        /* \"Registration.sol\":1411:1418  courses */\n      0x01\n        /* \"Registration.sol\":1411:1428  courses[courseID] */\n      0x00\n        /* \"Registration.sol\":1419:1427  courseID */\n      dup6\n        /* \"Registration.sol\":1411:1428  courses[courseID] */\n      dup2\n      mstore\n      0x20\n      add\n      swap1\n      dup2\n      mstore\n      0x20\n      add\n      0x00\n      keccak256\n      sload\n        /* \"Registration.sol\":1411:1434  courses[courseID] <= 10 */\n      gt\n        /* \"Registration.sol\":1407:1532  if (courses[courseID] <= 10) {... */\n      tag_52\n      jumpi\n        /* \"Registration.sol\":1467:1469  SR */\n      mload(0x40)\n      dup1\n      0x60\n      add\n      0x40\n      mstore\n      dup1\n      0x2b\n      dup2\n      mstore\n      0x20\n      add\n      data_9687cf985cb6222715aaef6758d3670bafe2b0c2757af4d8855ddd35ba24781d\n      0x2b\n      swap2\n      codecopy\n        /* \"Registration.sol\":1451:1457  sender */\n      dup2\n        /* \"Registration.sol\":1451:1464  sender.result */\n      0x03\n      add\n        /* \"Registration.sol\":1451:1469  sender.result = SR */\n      swap1\n      dup2\n      tag_53\n      swap2\n      swap1\n      tag_49\n      jump\t// in\n    tag_53:\n      pop\n        /* \"Registration.sol\":1407:1532  if (courses[courseID] <= 10) {... */\n      jump(tag_54)\n    tag_52:\n        /* \"Registration.sol\":1518:1520  WL */\n      mload(0x40)\n      dup1\n      0x60\n      add\n      0x40\n      mstore\n      dup1\n      0x23\n      dup2\n      mstore\n      0x20\n      add\n      data_5c70975c2b0c5530c20694c6c0aa88c9becbdbb0f8b71692471957c0e23ab5ce\n      0x23\n      swap2\n      codecopy\n        /* \"Registration.sol\":1502:1508  sender */\n      dup2\n        /* \"Registration.sol\":1502:1515  sender.result */\n      0x03\n      add\n        /* \"Registration.sol\":1502:1520  sender.result = WL */\n      swap1\n      dup2\n      tag_55\n      swap2\n      swap1\n      tag_49\n      jump\t// in\n    tag_55:\n      pop\n        /* \"Registration.sol\":1407:1532  if (courses[courseID] <= 10) {... */\n    tag_54:\n        /* \"Registration.sol\":976:1539  {... */\n      pop\n        /* \"Registration.sol\":911:1539  function register(uint courseID, string memory studentID) public {... */\n      pop\n      pop\n      jump\t// out\n        /* \"Registration.sol\":533:575  mapping(address => Student) public student */\n    tag_25:\n      mstore(0x20, 0x00)\n      dup1\n      0x00\n      mstore\n      keccak256(0x00, 0x40)\n      0x00\n      swap2\n      pop\n      swap1\n      pop\n      dup1\n      0x00\n      add\n      0x00\n      swap1\n      sload\n      swap1\n      0x0100\n      exp\n      swap1\n      div\n      0xff\n      and\n      swap1\n      dup1\n      0x01\n      add\n      dup1\n      sload\n      tag_56\n      swap1\n      tag_33\n      jump\t// in\n    tag_56:\n      dup1\n      0x1f\n      add\n      0x20\n      dup1\n      swap2\n      div\n      mul\n      0x20\n      add\n      mload(0x40)\n      swap1\n      dup2\n      add\n      0x40\n      mstore\n      dup1\n      swap3\n      swap2\n      swap1\n      dup2\n      dup2\n      mstore\n      0x20\n      add\n      dup3\n      dup1\n      sload\n      tag_57\n      swap1\n      tag_33\n      jump\t// in\n    tag_57:\n      dup1\n      iszero\n      tag_58\n      jumpi\n      dup1\n      0x1f\n      lt\n      tag_59\n      jumpi\n      0x0100\n      dup1\n      dup4\n      sload\n      div\n      mul\n      dup4\n      mstore\n      swap2\n      0x20\n      add\n      swap2\n      jump(tag_58)\n    tag_59:\n      dup3\n      add\n      swap2\n      swap1\n      0x00\n      mstore\n      keccak256(0x00, 0x20)\n      swap1\n    tag_60:\n      dup2\n      sload\n      dup2\n      mstore\n      swap1\n      0x01\n      add\n      swap1\n      0x20\n      add\n      dup1\n      dup4\n      gt\n      tag_60\n      jumpi\n      dup3\n      swap1\n      sub\n      0x1f\n      and\n      dup3\n      add\n      swap2\n    tag_58:\n      pop\n      pop\n      pop\n      pop\n      pop\n      swap1\n      dup1\n      0x02\n      add\n      sload\n      swap1\n      dup1\n      0x03\n      add\n      dup1\n      sload\n      tag_61\n      swap1\n      tag_33\n      jump\t// in\n    tag_61:\n      dup1\n      0x1f\n      add\n      0x20\n      dup1\n      swap2\n      div\n      mul\n      0x20\n      add\n      mload(0x40)\n      swap1\n      dup2\n      add\n      0x40\n      mstore\n      dup1\n      swap3\n      swap2\n      swap1\n      dup2\n      dup2\n      mstore\n      0x20\n      add\n      dup3\n      dup1\n      sload\n      tag_62\n      swap1\n      tag_33\n      jump\t// in\n    tag_62:\n      dup1\n      iszero\n      tag_63\n      jumpi\n      dup1\n      0x1f\n      lt\n      tag_64\n      jumpi\n      0x0100\n      dup1\n      dup4\n      sload\n      div\n      mul\n      dup4\n      mstore\n      swap2\n      0x20\n      add\n      swap2\n      jump(tag_63)\n    tag_64:\n      dup3\n      add\n      swap2\n      swap1\n      0x00\n      mstore\n      keccak256(0x00, 0x20)\n      swap1\n    tag_65:\n      dup2\n      sload\n      dup2\n      mstore\n      swap1\n      0x01\n      add\n      swap1\n      0x20\n      add\n      dup1\n      dup4\n      gt\n      tag_65\n      jumpi\n      dup3\n      swap1\n      sub\n      0x1f\n      and\n      dup3\n      add\n      swap2\n    tag_63:\n      pop\n      pop\n      pop\n      pop\n      pop\n      swap1\n      pop\n      dup5\n      jump\t// out\n        /* \"Registration.sol\":2008:2147  function MostPopularCourseId() public view returns (uint mostPopularCourseId_){... */\n    tag_29:\n        /* \"Registration.sol\":2060:2085  uint mostPopularCourseId_ */\n      0x00\n        /* \"Registration.sol\":2120:2139  mostPopularCourse() */\n      tag_67\n        /* \"Registration.sol\":2120:2137  mostPopularCourse */\n      tag_68\n        /* \"Registration.sol\":2120:2139  mostPopularCourse() */\n      jump\t// in\n    tag_67:\n        /* \"Registration.sol\":2097:2139  mostPopularCourseId_ = mostPopularCourse() */\n      swap1\n      pop\n        /* \"Registration.sol\":2008:2147  function MostPopularCourseId() public view returns (uint mostPopularCourseId_){... */\n      swap1\n      jump\t// out\n        /* \"Registration.sol\":1588:1923  function mostPopularCourse() private view returns (uint mostPopularCourseID_) {... */\n    tag_68:\n        /* \"Registration.sol\":1639:1664  uint mostPopularCourseID_ */\n      0x00\n        /* \"Registration.sol\":1677:1700  uint winningCourseCount */\n      dup1\n        /* \"Registration.sol\":1703:1704  0 */\n      0x00\n        /* \"Registration.sol\":1677:1704  uint winningCourseCount = 0 */\n      swap1\n      pop\n        /* \"Registration.sol\":1720:1726  uint p */\n      0x00\n        /* \"Registration.sol\":1715:1916  for (uint p = 0; p < 5; p++) {... */\n    tag_70:\n        /* \"Registration.sol\":1736:1737  5 */\n      0x05\n        /* \"Registration.sol\":1732:1733  p */\n      dup2\n        /* \"Registration.sol\":1732:1737  p < 5 */\n      lt\n        /* \"Registration.sol\":1715:1916  for (uint p = 0; p < 5; p++) {... */\n      iszero\n      tag_71\n      jumpi\n        /* \"Registration.sol\":1776:1794  winningCourseCount */\n      dup2\n        /* \"Registration.sol\":1763:1770  courses */\n      0x01\n        /* \"Registration.sol\":1763:1773  courses[p] */\n      0x00\n        /* \"Registration.sol\":1771:1772  p */\n      dup4\n        /* \"Registration.sol\":1763:1773  courses[p] */\n      dup2\n      mstore\n      0x20\n      add\n      swap1\n      dup2\n      mstore\n      0x20\n      add\n      0x00\n      keccak256\n      sload\n        /* \"Registration.sol\":1763:1794  courses[p] > winningCourseCount */\n      gt\n        /* \"Registration.sol\":1759:1905  if (courses[p] > winningCourseCount) {... */\n      iszero\n      tag_73\n      jumpi\n        /* \"Registration.sol\":1836:1843  courses */\n      0x01\n        /* \"Registration.sol\":1836:1846  courses[p] */\n      0x00\n        /* \"Registration.sol\":1844:1845  p */\n      dup3\n        /* \"Registration.sol\":1836:1846  courses[p] */\n      dup2\n      mstore\n      0x20\n      add\n      swap1\n      dup2\n      mstore\n      0x20\n      add\n      0x00\n      keccak256\n      sload\n        /* \"Registration.sol\":1815:1846  winningCourseCount = courses[p] */\n      swap2\n      pop\n        /* \"Registration.sol\":1888:1889  p */\n      dup1\n        /* \"Registration.sol\":1865:1889  mostPopularCourseID_ = p */\n      swap3\n      pop\n        /* \"Registration.sol\":1759:1905  if (courses[p] > winningCourseCount) {... */\n    tag_73:\n        /* \"Registration.sol\":1739:1742  p++ */\n      dup1\n      dup1\n      tag_74\n      swap1\n      tag_75\n      jump\t// in\n    tag_74:\n      swap2\n      pop\n      pop\n        /* \"Registration.sol\":1715:1916  for (uint p = 0; p < 5; p++) {... */\n      jump(tag_70)\n    tag_71:\n      pop\n        /* \"Registration.sol\":1666:1923  {... */\n      pop\n        /* \"Registration.sol\":1588:1923  function mostPopularCourse() private view returns (uint mostPopularCourseID_) {... */\n      swap1\n      jump\t// out\n        /* \"#utility.yul\":7:106   */\n    tag_76:\n        /* \"#utility.yul\":59:65   */\n      0x00\n        /* \"#utility.yul\":93:98   */\n      dup2\n        /* \"#utility.yul\":87:99   */\n      mload\n        /* \"#utility.yul\":77:99   */\n      swap1\n      pop\n        /* \"#utility.yul\":7:106   */\n      swap2\n      swap1\n      pop\n      jump\t// out\n        /* \"#utility.yul\":112:281   */\n    tag_77:\n        /* \"#utility.yul\":196:207   */\n      0x00\n        /* \"#utility.yul\":230:236   */\n      dup3\n        /* \"#utility.yul\":225:228   */\n      dup3\n        /* \"#utility.yul\":218:237   */\n      mstore\n        /* \"#utility.yul\":270:274   */\n      0x20\n        /* \"#utility.yul\":265:268   */\n      dup3\n        /* \"#utility.yul\":261:275   */\n      add\n        /* \"#utility.yul\":246:275   */\n      swap1\n      pop\n        /* \"#utility.yul\":112:281   */\n      swap3\n      swap2\n      pop\n      pop\n      jump\t// out\n        /* \"#utility.yul\":287:533   */\n    tag_78:\n        /* \"#utility.yul\":368:369   */\n      0x00\n        /* \"#utility.yul\":378:491   */\n    tag_130:\n        /* \"#utility.yul\":392:398   */\n      dup4\n        /* \"#utility.yul\":389:390   */\n      dup2\n        /* \"#utility.yul\":386:399   */\n      lt\n        /* \"#utility.yul\":378:491   */\n      iszero\n      tag_132\n      jumpi\n        /* \"#utility.yul\":477:478   */\n      dup1\n        /* \"#utility.yul\":472:475   */\n      dup3\n        /* \"#utility.yul\":468:479   */\n      add\n        /* \"#utility.yul\":462:480   */\n      mload\n        /* \"#utility.yul\":458:459   */\n      dup2\n        /* \"#utility.yul\":453:456   */\n      dup5\n        /* \"#utility.yul\":449:460   */\n      add\n        /* \"#utility.yul\":442:481   */\n      mstore\n        /* \"#utility.yul\":414:416   */\n      0x20\n        /* \"#utility.yul\":411:412   */\n      dup2\n        /* \"#utility.yul\":407:417   */\n      add\n        /* \"#utility.yul\":402:417   */\n      swap1\n      pop\n        /* \"#utility.yul\":378:491   */\n      jump(tag_130)\n    tag_132:\n        /* \"#utility.yul\":525:526   */\n      0x00\n        /* \"#utility.yul\":516:522   */\n      dup5\n        /* \"#utility.yul\":511:514   */\n      dup5\n        /* \"#utility.yul\":507:523   */\n      add\n        /* \"#utility.yul\":500:527   */\n      mstore\n        /* \"#utility.yul\":349:533   */\n      pop\n        /* \"#utility.yul\":287:533   */\n      pop\n      pop\n      pop\n      jump\t// out\n        /* \"#utility.yul\":539:641   */\n    tag_79:\n        /* \"#utility.yul\":580:586   */\n      0x00\n        /* \"#utility.yul\":631:633   */\n      0x1f\n        /* \"#utility.yul\":627:634   */\n      not\n        /* \"#utility.yul\":622:624   */\n      0x1f\n        /* \"#utility.yul\":615:620   */\n      dup4\n        /* \"#utility.yul\":611:625   */\n      add\n        /* \"#utility.yul\":607:635   */\n      and\n        /* \"#utility.yul\":597:635   */\n      swap1\n      pop\n        /* \"#utility.yul\":539:641   */\n      swap2\n      swap1\n      pop\n      jump\t// out\n        /* \"#utility.yul\":647:1024   */\n    tag_80:\n        /* \"#utility.yul\":735:738   */\n      0x00\n        /* \"#utility.yul\":763:802   */\n      tag_135\n        /* \"#utility.yul\":796:801   */\n      dup3\n        /* \"#utility.yul\":763:802   */\n      tag_76\n      jump\t// in\n    tag_135:\n        /* \"#utility.yul\":818:889   */\n      tag_136\n        /* \"#utility.yul\":882:888   */\n      dup2\n        /* \"#utility.yul\":877:880   */\n      dup6\n        /* \"#utility.yul\":818:889   */\n      tag_77\n      jump\t// in\n    tag_136:\n        /* \"#utility.yul\":811:889   */\n      swap4\n      pop\n        /* \"#utility.yul\":898:963   */\n      tag_137\n        /* \"#utility.yul\":956:962   */\n      dup2\n        /* \"#utility.yul\":951:954   */\n      dup6\n        /* \"#utility.yul\":944:948   */\n      0x20\n        /* \"#utility.yul\":937:942   */\n      dup7\n        /* \"#utility.yul\":933:949   */\n      add\n        /* \"#utility.yul\":898:963   */\n      tag_78\n      jump\t// in\n    tag_137:\n        /* \"#utility.yul\":988:1017   */\n      tag_138\n        /* \"#utility.yul\":1010:1016   */\n      dup2\n        /* \"#utility.yul\":988:1017   */\n      tag_79\n      jump\t// in\n    tag_138:\n        /* \"#utility.yul\":983:986   */\n      dup5\n        /* \"#utility.yul\":979:1018   */\n      add\n        /* \"#utility.yul\":972:1018   */\n      swap2\n      pop\n        /* \"#utility.yul\":739:1024   */\n      pop\n        /* \"#utility.yul\":647:1024   */\n      swap3\n      swap2\n      pop\n      pop\n      jump\t// out\n        /* \"#utility.yul\":1030:1343   */\n    tag_11:\n        /* \"#utility.yul\":1143:1147   */\n      0x00\n        /* \"#utility.yul\":1181:1183   */\n      0x20\n        /* \"#utility.yul\":1170:1179   */\n      dup3\n        /* \"#utility.yul\":1166:1184   */\n      add\n        /* \"#utility.yul\":1158:1184   */\n      swap1\n      pop\n        /* \"#utility.yul\":1230:1239   */\n      dup2\n        /* \"#utility.yul\":1224:1228   */\n      dup2\n        /* \"#utility.yul\":1220:1240   */\n      sub\n        /* \"#utility.yul\":1216:1217   */\n      0x00\n        /* \"#utility.yul\":1205:1214   */\n      dup4\n        /* \"#utility.yul\":1201:1218   */\n      add\n        /* \"#utility.yul\":1194:1241   */\n      mstore\n        /* \"#utility.yul\":1258:1336   */\n      tag_140\n        /* \"#utility.yul\":1331:1335   */\n      dup2\n        /* \"#utility.yul\":1322:1328   */\n      dup5\n        /* \"#utility.yul\":1258:1336   */\n      tag_80\n      jump\t// in\n    tag_140:\n        /* \"#utility.yul\":1250:1336   */\n      swap1\n      pop\n        /* \"#utility.yul\":1030:1343   */\n      swap3\n      swap2\n      pop\n      pop\n      jump\t// out\n        /* \"#utility.yul\":1349:1424   */\n    tag_81:\n        /* \"#utility.yul\":1382:1388   */\n      0x00\n        /* \"#utility.yul\":1415:1417   */\n      0x40\n        /* \"#utility.yul\":1409:1418   */\n      mload\n        /* \"#utility.yul\":1399:1418   */\n      swap1\n      pop\n        /* \"#utility.yul\":1349:1424   */\n      swap1\n      jump\t// out\n        /* \"#utility.yul\":1430:1547   */\n    tag_82:\n        /* \"#utility.yul\":1539:1540   */\n      0x00\n        /* \"#utility.yul\":1536:1537   */\n      dup1\n        /* \"#utility.yul\":1529:1541   */\n      revert\n        /* \"#utility.yul\":1553:1670   */\n    tag_83:\n        /* \"#utility.yul\":1662:1663   */\n      0x00\n        /* \"#utility.yul\":1659:1660   */\n      dup1\n        /* \"#utility.yul\":1652:1664   */\n      revert\n        /* \"#utility.yul\":1676:1753   */\n    tag_84:\n        /* \"#utility.yul\":1713:1720   */\n      0x00\n        /* \"#utility.yul\":1742:1747   */\n      dup2\n        /* \"#utility.yul\":1731:1747   */\n      swap1\n      pop\n        /* \"#utility.yul\":1676:1753   */\n      swap2\n      swap1\n      pop\n      jump\t// out\n        /* \"#utility.yul\":1759:1881   */\n    tag_85:\n        /* \"#utility.yul\":1832:1856   */\n      tag_146\n        /* \"#utility.yul\":1850:1855   */\n      dup2\n        /* \"#utility.yul\":1832:1856   */\n      tag_84\n      jump\t// in\n    tag_146:\n        /* \"#utility.yul\":1825:1830   */\n      dup2\n        /* \"#utility.yul\":1822:1857   */\n      eq\n        /* \"#utility.yul\":1812:1875   */\n      tag_147\n      jumpi\n        /* \"#utility.yul\":1871:1872   */\n      0x00\n        /* \"#utility.yul\":1868:1869   */\n      dup1\n        /* \"#utility.yul\":1861:1873   */\n      revert\n        /* \"#utility.yul\":1812:1875   */\n    tag_147:\n        /* \"#utility.yul\":1759:1881   */\n      pop\n      jump\t// out\n        /* \"#utility.yul\":1887:2026   */\n    tag_86:\n        /* \"#utility.yul\":1933:1938   */\n      0x00\n        /* \"#utility.yul\":1971:1977   */\n      dup2\n        /* \"#utility.yul\":1958:1978   */\n      calldataload\n        /* \"#utility.yul\":1949:1978   */\n      swap1\n      pop\n        /* \"#utility.yul\":1987:2020   */\n      tag_149\n        /* \"#utility.yul\":2014:2019   */\n      dup2\n        /* \"#utility.yul\":1987:2020   */\n      tag_85\n      jump\t// in\n    tag_149:\n        /* \"#utility.yul\":1887:2026   */\n      swap3\n      swap2\n      pop\n      pop\n      jump\t// out\n        /* \"#utility.yul\":2032:2361   */\n    tag_14:\n        /* \"#utility.yul\":2091:2097   */\n      0x00\n        /* \"#utility.yul\":2140:2142   */\n      0x20\n        /* \"#utility.yul\":2128:2137   */\n      dup3\n        /* \"#utility.yul\":2119:2126   */\n      dup5\n        /* \"#utility.yul\":2115:2138   */\n      sub\n        /* \"#utility.yul\":2111:2143   */\n      slt\n        /* \"#utility.yul\":2108:2227   */\n      iszero\n      tag_151\n      jumpi\n        /* \"#utility.yul\":2146:2225   */\n      tag_152\n      tag_82\n      jump\t// in\n    tag_152:\n        /* \"#utility.yul\":2108:2227   */\n    tag_151:\n        /* \"#utility.yul\":2266:2267   */\n      0x00\n        /* \"#utility.yul\":2291:2344   */\n      tag_153\n        /* \"#utility.yul\":2336:2343   */\n      dup5\n        /* \"#utility.yul\":2327:2333   */\n      dup3\n        /* \"#utility.yul\":2316:2325   */\n      dup6\n        /* \"#utility.yul\":2312:2334   */\n      add\n        /* \"#utility.yul\":2291:2344   */\n      tag_86\n      jump\t// in\n    tag_153:\n        /* \"#utility.yul\":2281:2344   */\n      swap2\n      pop\n        /* \"#utility.yul\":2237:2354   */\n      pop\n        /* \"#utility.yul\":2032:2361   */\n      swap3\n      swap2\n      pop\n      pop\n      jump\t// out\n        /* \"#utility.yul\":2367:2485   */\n    tag_87:\n        /* \"#utility.yul\":2454:2478   */\n      tag_155\n        /* \"#utility.yul\":2472:2477   */\n      dup2\n        /* \"#utility.yul\":2454:2478   */\n      tag_84\n      jump\t// in\n    tag_155:\n        /* \"#utility.yul\":2449:2452   */\n      dup3\n        /* \"#utility.yul\":2442:2479   */\n      mstore\n        /* \"#utility.yul\":2367:2485   */\n      pop\n      pop\n      jump\t// out\n        /* \"#utility.yul\":2491:2713   */\n    tag_17:\n        /* \"#utility.yul\":2584:2588   */\n      0x00\n        /* \"#utility.yul\":2622:2624   */\n      0x20\n        /* \"#utility.yul\":2611:2620   */\n      dup3\n        /* \"#utility.yul\":2607:2625   */\n      add\n        /* \"#utility.yul\":2599:2625   */\n      swap1\n      pop\n        /* \"#utility.yul\":2635:2706   */\n      tag_157\n        /* \"#utility.yul\":2703:2704   */\n      0x00\n        /* \"#utility.yul\":2692:2701   */\n      dup4\n        /* \"#utility.yul\":2688:2705   */\n      add\n        /* \"#utility.yul\":2679:2685   */\n      dup5\n        /* \"#utility.yul\":2635:2706   */\n      tag_87\n      jump\t// in\n    tag_157:\n        /* \"#utility.yul\":2491:2713   */\n      swap3\n      swap2\n      pop\n      pop\n      jump\t// out\n        /* \"#utility.yul\":2719:2836   */\n    tag_88:\n        /* \"#utility.yul\":2828:2829   */\n      0x00\n        /* \"#utility.yul\":2825:2826   */\n      dup1\n        /* \"#utility.yul\":2818:2830   */\n      revert\n        /* \"#utility.yul\":2842:2959   */\n    tag_89:\n        /* \"#utility.yul\":2951:2952   */\n      0x00\n        /* \"#utility.yul\":2948:2949   */\n      dup1\n        /* \"#utility.yul\":2941:2953   */\n      revert\n        /* \"#utility.yul\":2965:3145   */\n    tag_90:\n        /* \"#utility.yul\":3013:3090   */\n      0x4e487b7100000000000000000000000000000000000000000000000000000000\n        /* \"#utility.yul\":3010:3011   */\n      0x00\n        /* \"#utility.yul\":3003:3091   */\n      mstore\n        /* \"#utility.yul\":3110:3114   */\n      0x41\n        /* \"#utility.yul\":3107:3108   */\n      0x04\n        /* \"#utility.yul\":3100:3115   */\n      mstore\n        /* \"#utility.yul\":3134:3138   */\n      0x24\n        /* \"#utility.yul\":3131:3132   */\n      0x00\n        /* \"#utility.yul\":3124:3139   */\n      revert\n        /* \"#utility.yul\":3151:3432   */\n    tag_91:\n        /* \"#utility.yul\":3234:3261   */\n      tag_162\n        /* \"#utility.yul\":3256:3260   */\n      dup3\n        /* \"#utility.yul\":3234:3261   */\n      tag_79\n      jump\t// in\n    tag_162:\n        /* \"#utility.yul\":3226:3232   */\n      dup2\n        /* \"#utility.yul\":3222:3262   */\n      add\n        /* \"#utility.yul\":3364:3370   */\n      dup2\n        /* \"#utility.yul\":3352:3362   */\n      dup2\n        /* \"#utility.yul\":3349:3371   */\n      lt\n        /* \"#utility.yul\":3328:3346   */\n      0xffffffffffffffff\n        /* \"#utility.yul\":3316:3326   */\n      dup3\n        /* \"#utility.yul\":3313:3347   */\n      gt\n        /* \"#utility.yul\":3310:3372   */\n      or\n        /* \"#utility.yul\":3307:3395   */\n      iszero\n      tag_163\n      jumpi\n        /* \"#utility.yul\":3375:3393   */\n      tag_164\n      tag_90\n      jump\t// in\n    tag_164:\n        /* \"#utility.yul\":3307:3395   */\n    tag_163:\n        /* \"#utility.yul\":3415:3425   */\n      dup1\n        /* \"#utility.yul\":3411:3413   */\n      0x40\n        /* \"#utility.yul\":3404:3426   */\n      mstore\n        /* \"#utility.yul\":3194:3432   */\n      pop\n        /* \"#utility.yul\":3151:3432   */\n      pop\n      pop\n      jump\t// out\n        /* \"#utility.yul\":3438:3567   */\n    tag_92:\n        /* \"#utility.yul\":3472:3478   */\n      0x00\n        /* \"#utility.yul\":3499:3519   */\n      tag_166\n      tag_81\n      jump\t// in\n    tag_166:\n        /* \"#utility.yul\":3489:3519   */\n      swap1\n      pop\n        /* \"#utility.yul\":3528:3561   */\n      tag_167\n        /* \"#utility.yul\":3556:3560   */\n      dup3\n        /* \"#utility.yul\":3548:3554   */\n      dup3\n        /* \"#utility.yul\":3528:3561   */\n      tag_91\n      jump\t// in\n    tag_167:\n        /* \"#utility.yul\":3438:3567   */\n      swap2\n      swap1\n      pop\n      jump\t// out\n        /* \"#utility.yul\":3573:3881   */\n    tag_93:\n        /* \"#utility.yul\":3635:3639   */\n      0x00\n        /* \"#utility.yul\":3725:3743   */\n      0xffffffffffffffff\n        /* \"#utility.yul\":3717:3723   */\n      dup3\n        /* \"#utility.yul\":3714:3744   */\n      gt\n        /* \"#utility.yul\":3711:3767   */\n      iszero\n      tag_169\n      jumpi\n        /* \"#utility.yul\":3747:3765   */\n      tag_170\n      tag_90\n      jump\t// in\n    tag_170:\n        /* \"#utility.yul\":3711:3767   */\n    tag_169:\n        /* \"#utility.yul\":3785:3814   */\n      tag_171\n        /* \"#utility.yul\":3807:3813   */\n      dup3\n        /* \"#utility.yul\":3785:3814   */\n      tag_79\n      jump\t// in\n    tag_171:\n        /* \"#utility.yul\":3777:3814   */\n      swap1\n      pop\n        /* \"#utility.yul\":3869:3873   */\n      0x20\n        /* \"#utility.yul\":3863:3867   */\n      dup2\n        /* \"#utility.yul\":3859:3874   */\n      add\n        /* \"#utility.yul\":3851:3874   */\n      swap1\n      pop\n        /* \"#utility.yul\":3573:3881   */\n      swap2\n      swap1\n      pop\n      jump\t// out\n        /* \"#utility.yul\":3887:4033   */\n    tag_94:\n        /* \"#utility.yul\":3984:3990   */\n      dup3\n        /* \"#utility.yul\":3979:3982   */\n      dup2\n        /* \"#utility.yul\":3974:3977   */\n      dup4\n        /* \"#utility.yul\":3961:3991   */\n      calldatacopy\n        /* \"#utility.yul\":4025:4026   */\n      0x00\n        /* \"#utility.yul\":4016:4022   */\n      dup4\n        /* \"#utility.yul\":4011:4014   */\n      dup4\n        /* \"#utility.yul\":4007:4023   */\n      add\n        /* \"#utility.yul\":4000:4027   */\n      mstore\n        /* \"#utility.yul\":3887:4033   */\n      pop\n      pop\n      pop\n      jump\t// out\n        /* \"#utility.yul\":4039:4464   */\n    tag_95:\n        /* \"#utility.yul\":4117:4122   */\n      0x00\n        /* \"#utility.yul\":4142:4208   */\n      tag_174\n        /* \"#utility.yul\":4158:4207   */\n      tag_175\n        /* \"#utility.yul\":4200:4206   */\n      dup5\n        /* \"#utility.yul\":4158:4207   */\n      tag_93\n      jump\t// in\n    tag_175:\n        /* \"#utility.yul\":4142:4208   */\n      tag_92\n      jump\t// in\n    tag_174:\n        /* \"#utility.yul\":4133:4208   */\n      swap1\n      pop\n        /* \"#utility.yul\":4231:4237   */\n      dup3\n        /* \"#utility.yul\":4224:4229   */\n      dup2\n        /* \"#utility.yul\":4217:4238   */\n      mstore\n        /* \"#utility.yul\":4269:4273   */\n      0x20\n        /* \"#utility.yul\":4262:4267   */\n      dup2\n        /* \"#utility.yul\":4258:4274   */\n      add\n        /* \"#utility.yul\":4307:4310   */\n      dup5\n        /* \"#utility.yul\":4298:4304   */\n      dup5\n        /* \"#utility.yul\":4293:4296   */\n      dup5\n        /* \"#utility.yul\":4289:4305   */\n      add\n        /* \"#utility.yul\":4286:4311   */\n      gt\n        /* \"#utility.yul\":4283:4395   */\n      iszero\n      tag_176\n      jumpi\n        /* \"#utility.yul\":4314:4393   */\n      tag_177\n      tag_89\n      jump\t// in\n    tag_177:\n        /* \"#utility.yul\":4283:4395   */\n    tag_176:\n        /* \"#utility.yul\":4404:4458   */\n      tag_178\n        /* \"#utility.yul\":4451:4457   */\n      dup5\n        /* \"#utility.yul\":4446:4449   */\n      dup3\n        /* \"#utility.yul\":4441:4444   */\n      dup6\n        /* \"#utility.yul\":4404:4458   */\n      tag_94\n      jump\t// in\n    tag_178:\n        /* \"#utility.yul\":4123:4464   */\n      pop\n        /* \"#utility.yul\":4039:4464   */\n      swap4\n      swap3\n      pop\n      pop\n      pop\n      jump\t// out\n        /* \"#utility.yul\":4484:4824   */\n    tag_96:\n        /* \"#utility.yul\":4540:4545   */\n      0x00\n        /* \"#utility.yul\":4589:4592   */\n      dup3\n        /* \"#utility.yul\":4582:4586   */\n      0x1f\n        /* \"#utility.yul\":4574:4580   */\n      dup4\n        /* \"#utility.yul\":4570:4587   */\n      add\n        /* \"#utility.yul\":4566:4593   */\n      slt\n        /* \"#utility.yul\":4556:4678   */\n      tag_180\n      jumpi\n        /* \"#utility.yul\":4597:4676   */\n      tag_181\n      tag_88\n      jump\t// in\n    tag_181:\n        /* \"#utility.yul\":4556:4678   */\n    tag_180:\n        /* \"#utility.yul\":4714:4720   */\n      dup2\n        /* \"#utility.yul\":4701:4721   */\n      calldataload\n        /* \"#utility.yul\":4739:4818   */\n      tag_182\n        /* \"#utility.yul\":4814:4817   */\n      dup5\n        /* \"#utility.yul\":4806:4812   */\n      dup3\n        /* \"#utility.yul\":4799:4803   */\n      0x20\n        /* \"#utility.yul\":4791:4797   */\n      dup7\n        /* \"#utility.yul\":4787:4804   */\n      add\n        /* \"#utility.yul\":4739:4818   */\n      tag_95\n      jump\t// in\n    tag_182:\n        /* \"#utility.yul\":4730:4818   */\n      swap2\n      pop\n        /* \"#utility.yul\":4546:4824   */\n      pop\n        /* \"#utility.yul\":4484:4824   */\n      swap3\n      swap2\n      pop\n      pop\n      jump\t// out\n        /* \"#utility.yul\":4830:5484   */\n    tag_20:\n        /* \"#utility.yul\":4908:4914   */\n      0x00\n        /* \"#utility.yul\":4916:4922   */\n      dup1\n        /* \"#utility.yul\":4965:4967   */\n      0x40\n        /* \"#utility.yul\":4953:4962   */\n      dup4\n        /* \"#utility.yul\":4944:4951   */\n      dup6\n        /* \"#utility.yul\":4940:4963   */\n      sub\n        /* \"#utility.yul\":4936:4968   */\n      slt\n        /* \"#utility.yul\":4933:5052   */\n      iszero\n      tag_184\n      jumpi\n        /* \"#utility.yul\":4971:5050   */\n      tag_185\n      tag_82\n      jump\t// in\n    tag_185:\n        /* \"#utility.yul\":4933:5052   */\n    tag_184:\n        /* \"#utility.yul\":5091:5092   */\n      0x00\n        /* \"#utility.yul\":5116:5169   */\n      tag_186\n        /* \"#utility.yul\":5161:5168   */\n      dup6\n        /* \"#utility.yul\":5152:5158   */\n      dup3\n        /* \"#utility.yul\":5141:5150   */\n      dup7\n        /* \"#utility.yul\":5137:5159   */\n      add\n        /* \"#utility.yul\":5116:5169   */\n      tag_86\n      jump\t// in\n    tag_186:\n        /* \"#utility.yul\":5106:5169   */\n      swap3\n      pop\n        /* \"#utility.yul\":5062:5179   */\n      pop\n        /* \"#utility.yul\":5246:5248   */\n      0x20\n        /* \"#utility.yul\":5235:5244   */\n      dup4\n        /* \"#utility.yul\":5231:5249   */\n      add\n        /* \"#utility.yul\":5218:5250   */\n      calldataload\n        /* \"#utility.yul\":5277:5295   */\n      0xffffffffffffffff\n        /* \"#utility.yul\":5269:5275   */\n      dup2\n        /* \"#utility.yul\":5266:5296   */\n      gt\n        /* \"#utility.yul\":5263:5380   */\n      iszero\n      tag_187\n      jumpi\n        /* \"#utility.yul\":5299:5378   */\n      tag_188\n      tag_83\n      jump\t// in\n    tag_188:\n        /* \"#utility.yul\":5263:5380   */\n    tag_187:\n        /* \"#utility.yul\":5404:5467   */\n      tag_189\n        /* \"#utility.yul\":5459:5466   */\n      dup6\n        /* \"#utility.yul\":5450:5456   */\n      dup3\n        /* \"#utility.yul\":5439:5448   */\n      dup7\n        /* \"#utility.yul\":5435:5457   */\n      add\n        /* \"#utility.yul\":5404:5467   */\n      tag_96\n      jump\t// in\n    tag_189:\n        /* \"#utility.yul\":5394:5467   */\n      swap2\n      pop\n        /* \"#utility.yul\":5189:5477   */\n      pop\n        /* \"#utility.yul\":4830:5484   */\n      swap3\n      pop\n      swap3\n      swap1\n      pop\n      jump\t// out\n        /* \"#utility.yul\":5490:5616   */\n    tag_97:\n        /* \"#utility.yul\":5527:5534   */\n      0x00\n        /* \"#utility.yul\":5567:5609   */\n      0xffffffffffffffffffffffffffffffffffffffff\n        /* \"#utility.yul\":5560:5565   */\n      dup3\n        /* \"#utility.yul\":5556:5610   */\n      and\n        /* \"#utility.yul\":5545:5610   */\n      swap1\n      pop\n        /* \"#utility.yul\":5490:5616   */\n      swap2\n      swap1\n      pop\n      jump\t// out\n        /* \"#utility.yul\":5622:5718   */\n    tag_98:\n        /* \"#utility.yul\":5659:5666   */\n      0x00\n        /* \"#utility.yul\":5688:5712   */\n      tag_192\n        /* \"#utility.yul\":5706:5711   */\n      dup3\n        /* \"#utility.yul\":5688:5712   */\n      tag_97\n      jump\t// in\n    tag_192:\n        /* \"#utility.yul\":5677:5712   */\n      swap1\n      pop\n        /* \"#utility.yul\":5622:5718   */\n      swap2\n      swap1\n      pop\n      jump\t// out\n        /* \"#utility.yul\":5724:5846   */\n    tag_99:\n        /* \"#utility.yul\":5797:5821   */\n      tag_194\n        /* \"#utility.yul\":5815:5820   */\n      dup2\n        /* \"#utility.yul\":5797:5821   */\n      tag_98\n      jump\t// in\n    tag_194:\n        /* \"#utility.yul\":5790:5795   */\n      dup2\n        /* \"#utility.yul\":5787:5822   */\n      eq\n        /* \"#utility.yul\":5777:5840   */\n      tag_195\n      jumpi\n        /* \"#utility.yul\":5836:5837   */\n      0x00\n        /* \"#utility.yul\":5833:5834   */\n      dup1\n        /* \"#utility.yul\":5826:5838   */\n      revert\n        /* \"#utility.yul\":5777:5840   */\n    tag_195:\n        /* \"#utility.yul\":5724:5846   */\n      pop\n      jump\t// out\n        /* \"#utility.yul\":5852:5991   */\n    tag_100:\n        /* \"#utility.yul\":5898:5903   */\n      0x00\n        /* \"#utility.yul\":5936:5942   */\n      dup2\n        /* \"#utility.yul\":5923:5943   */\n      calldataload\n        /* \"#utility.yul\":5914:5943   */\n      swap1\n      pop\n        /* \"#utility.yul\":5952:5985   */\n      tag_197\n        /* \"#utility.yul\":5979:5984   */\n      dup2\n        /* \"#utility.yul\":5952:5985   */\n      tag_99\n      jump\t// in\n    tag_197:\n        /* \"#utility.yul\":5852:5991   */\n      swap3\n      swap2\n      pop\n      pop\n      jump\t// out\n        /* \"#utility.yul\":5997:6326   */\n    tag_24:\n        /* \"#utility.yul\":6056:6062   */\n      0x00\n        /* \"#utility.yul\":6105:6107   */\n      0x20\n        /* \"#utility.yul\":6093:6102   */\n      dup3\n        /* \"#utility.yul\":6084:6091   */\n      dup5\n        /* \"#utility.yul\":6080:6103   */\n      sub\n        /* \"#utility.yul\":6076:6108   */\n      slt\n        /* \"#utility.yul\":6073:6192   */\n      iszero\n      tag_199\n      jumpi\n        /* \"#utility.yul\":6111:6190   */\n      tag_200\n      tag_82\n      jump\t// in\n    tag_200:\n        /* \"#utility.yul\":6073:6192   */\n    tag_199:\n        /* \"#utility.yul\":6231:6232   */\n      0x00\n        /* \"#utility.yul\":6256:6309   */\n      tag_201\n        /* \"#utility.yul\":6301:6308   */\n      dup5\n        /* \"#utility.yul\":6292:6298   */\n      dup3\n        /* \"#utility.yul\":6281:6290   */\n      dup6\n        /* \"#utility.yul\":6277:6299   */\n      add\n        /* \"#utility.yul\":6256:6309   */\n      tag_100\n      jump\t// in\n    tag_201:\n        /* \"#utility.yul\":6246:6309   */\n      swap2\n      pop\n        /* \"#utility.yul\":6202:6319   */\n      pop\n        /* \"#utility.yul\":5997:6326   */\n      swap3\n      swap2\n      pop\n      pop\n      jump\t// out\n        /* \"#utility.yul\":6332:6422   */\n    tag_101:\n        /* \"#utility.yul\":6366:6373   */\n      0x00\n        /* \"#utility.yul\":6409:6414   */\n      dup2\n        /* \"#utility.yul\":6402:6415   */\n      iszero\n        /* \"#utility.yul\":6395:6416   */\n      iszero\n        /* \"#utility.yul\":6384:6416   */\n      swap1\n      pop\n        /* \"#utility.yul\":6332:6422   */\n      swap2\n      swap1\n      pop\n      jump\t// out\n        /* \"#utility.yul\":6428:6537   */\n    tag_102:\n        /* \"#utility.yul\":6509:6530   */\n      tag_204\n        /* \"#utility.yul\":6524:6529   */\n      dup2\n        /* \"#utility.yul\":6509:6530   */\n      tag_101\n      jump\t// in\n    tag_204:\n        /* \"#utility.yul\":6504:6507   */\n      dup3\n        /* \"#utility.yul\":6497:6531   */\n      mstore\n        /* \"#utility.yul\":6428:6537   */\n      pop\n      pop\n      jump\t// out\n        /* \"#utility.yul\":6543:7266   */\n    tag_27:\n        /* \"#utility.yul\":6754:6758   */\n      0x00\n        /* \"#utility.yul\":6792:6795   */\n      0x80\n        /* \"#utility.yul\":6781:6790   */\n      dup3\n        /* \"#utility.yul\":6777:6796   */\n      add\n        /* \"#utility.yul\":6769:6796   */\n      swap1\n      pop\n        /* \"#utility.yul\":6806:6871   */\n      tag_206\n        /* \"#utility.yul\":6868:6869   */\n      0x00\n        /* \"#utility.yul\":6857:6866   */\n      dup4\n        /* \"#utility.yul\":6853:6870   */\n      add\n        /* \"#utility.yul\":6844:6850   */\n      dup8\n        /* \"#utility.yul\":6806:6871   */\n      tag_102\n      jump\t// in\n    tag_206:\n        /* \"#utility.yul\":6918:6927   */\n      dup2\n        /* \"#utility.yul\":6912:6916   */\n      dup2\n        /* \"#utility.yul\":6908:6928   */\n      sub\n        /* \"#utility.yul\":6903:6905   */\n      0x20\n        /* \"#utility.yul\":6892:6901   */\n      dup4\n        /* \"#utility.yul\":6888:6906   */\n      add\n        /* \"#utility.yul\":6881:6929   */\n      mstore\n        /* \"#utility.yul\":6946:7024   */\n      tag_207\n        /* \"#utility.yul\":7019:7023   */\n      dup2\n        /* \"#utility.yul\":7010:7016   */\n      dup7\n        /* \"#utility.yul\":6946:7024   */\n      tag_80\n      jump\t// in\n    tag_207:\n        /* \"#utility.yul\":6938:7024   */\n      swap1\n      pop\n        /* \"#utility.yul\":7034:7106   */\n      tag_208\n        /* \"#utility.yul\":7102:7104   */\n      0x40\n        /* \"#utility.yul\":7091:7100   */\n      dup4\n        /* \"#utility.yul\":7087:7105   */\n      add\n        /* \"#utility.yul\":7078:7084   */\n      dup6\n        /* \"#utility.yul\":7034:7106   */\n      tag_87\n      jump\t// in\n    tag_208:\n        /* \"#utility.yul\":7153:7162   */\n      dup2\n        /* \"#utility.yul\":7147:7151   */\n      dup2\n        /* \"#utility.yul\":7143:7163   */\n      sub\n        /* \"#utility.yul\":7138:7140   */\n      0x60\n        /* \"#utility.yul\":7127:7136   */\n      dup4\n        /* \"#utility.yul\":7123:7141   */\n      add\n        /* \"#utility.yul\":7116:7164   */\n      mstore\n        /* \"#utility.yul\":7181:7259   */\n      tag_209\n        /* \"#utility.yul\":7254:7258   */\n      dup2\n        /* \"#utility.yul\":7245:7251   */\n      dup5\n        /* \"#utility.yul\":7181:7259   */\n      tag_80\n      jump\t// in\n    tag_209:\n        /* \"#utility.yul\":7173:7259   */\n      swap1\n      pop\n        /* \"#utility.yul\":6543:7266   */\n      swap6\n      swap5\n      pop\n      pop\n      pop\n      pop\n      pop\n      jump\t// out\n        /* \"#utility.yul\":7272:7452   */\n    tag_103:\n        /* \"#utility.yul\":7320:7397   */\n      0x4e487b7100000000000000000000000000000000000000000000000000000000\n        /* \"#utility.yul\":7317:7318   */\n      0x00\n        /* \"#utility.yul\":7310:7398   */\n      mstore\n        /* \"#utility.yul\":7417:7421   */\n      0x22\n        /* \"#utility.yul\":7414:7415   */\n      0x04\n        /* \"#utility.yul\":7407:7422   */\n      mstore\n        /* \"#utility.yul\":7441:7445   */\n      0x24\n        /* \"#utility.yul\":7438:7439   */\n      0x00\n        /* \"#utility.yul\":7431:7446   */\n      revert\n        /* \"#utility.yul\":7458:7778   */\n    tag_33:\n        /* \"#utility.yul\":7502:7508   */\n      0x00\n        /* \"#utility.yul\":7539:7540   */\n      0x02\n        /* \"#utility.yul\":7533:7537   */\n      dup3\n        /* \"#utility.yul\":7529:7541   */\n      div\n        /* \"#utility.yul\":7519:7541   */\n      swap1\n      pop\n        /* \"#utility.yul\":7586:7587   */\n      0x01\n        /* \"#utility.yul\":7580:7584   */\n      dup3\n        /* \"#utility.yul\":7576:7588   */\n      and\n        /* \"#utility.yul\":7607:7625   */\n      dup1\n        /* \"#utility.yul\":7597:7678   */\n      tag_212\n      jumpi\n        /* \"#utility.yul\":7663:7667   */\n      0x7f\n        /* \"#utility.yul\":7655:7661   */\n      dup3\n        /* \"#utility.yul\":7651:7668   */\n      and\n        /* \"#utility.yul\":7641:7668   */\n      swap2\n      pop\n        /* \"#utility.yul\":7597:7678   */\n    tag_212:\n        /* \"#utility.yul\":7725:7727   */\n      0x20\n        /* \"#utility.yul\":7717:7723   */\n      dup3\n        /* \"#utility.yul\":7714:7728   */\n      lt\n        /* \"#utility.yul\":7694:7712   */\n      dup2\n        /* \"#utility.yul\":7691:7729   */\n      sub\n        /* \"#utility.yul\":7688:7772   */\n      tag_213\n      jumpi\n        /* \"#utility.yul\":7744:7762   */\n      tag_214\n      tag_103\n      jump\t// in\n    tag_214:\n        /* \"#utility.yul\":7688:7772   */\n    tag_213:\n        /* \"#utility.yul\":7509:7778   */\n      pop\n        /* \"#utility.yul\":7458:7778   */\n      swap2\n      swap1\n      pop\n      jump\t// out\n        /* \"#utility.yul\":7784:8007   */\n    tag_104:\n        /* \"#utility.yul\":7924:7958   */\n      0x546865206964206d7573742062652067726561746572206f7220657175616c20\n        /* \"#utility.yul\":7920:7921   */\n      0x00\n        /* \"#utility.yul\":7912:7918   */\n      dup3\n        /* \"#utility.yul\":7908:7922   */\n      add\n        /* \"#utility.yul\":7901:7959   */\n      mstore\n        /* \"#utility.yul\":7993:7999   */\n      0x746f203000000000000000000000000000000000000000000000000000000000\n        /* \"#utility.yul\":7988:7990   */\n      0x20\n        /* \"#utility.yul\":7980:7986   */\n      dup3\n        /* \"#utility.yul\":7976:7991   */\n      add\n        /* \"#utility.yul\":7969:8000   */\n      mstore\n        /* \"#utility.yul\":7784:8007   */\n      pop\n      jump\t// out\n        /* \"#utility.yul\":8013:8379   */\n    tag_105:\n        /* \"#utility.yul\":8155:8158   */\n      0x00\n        /* \"#utility.yul\":8176:8243   */\n      tag_217\n        /* \"#utility.yul\":8240:8242   */\n      0x24\n        /* \"#utility.yul\":8235:8238   */\n      dup4\n        /* \"#utility.yul\":8176:8243   */\n      tag_77\n      jump\t// in\n    tag_217:\n        /* \"#utility.yul\":8169:8243   */\n      swap2\n      pop\n        /* \"#utility.yul\":8252:8345   */\n      tag_218\n        /* \"#utility.yul\":8341:8344   */\n      dup3\n        /* \"#utility.yul\":8252:8345   */\n      tag_104\n      jump\t// in\n    tag_218:\n        /* \"#utility.yul\":8370:8372   */\n      0x40\n        /* \"#utility.yul\":8365:8368   */\n      dup3\n        /* \"#utility.yul\":8361:8373   */\n      add\n        /* \"#utility.yul\":8354:8373   */\n      swap1\n      pop\n        /* \"#utility.yul\":8013:8379   */\n      swap2\n      swap1\n      pop\n      jump\t// out\n        /* \"#utility.yul\":8385:8804   */\n    tag_41:\n        /* \"#utility.yul\":8551:8555   */\n      0x00\n        /* \"#utility.yul\":8589:8591   */\n      0x20\n        /* \"#utility.yul\":8578:8587   */\n      dup3\n        /* \"#utility.yul\":8574:8592   */\n      add\n        /* \"#utility.yul\":8566:8592   */\n      swap1\n      pop\n        /* \"#utility.yul\":8638:8647   */\n      dup2\n        /* \"#utility.yul\":8632:8636   */\n      dup2\n        /* \"#utility.yul\":8628:8648   */\n      sub\n        /* \"#utility.yul\":8624:8625   */\n      0x00\n        /* \"#utility.yul\":8613:8622   */\n      dup4\n        /* \"#utility.yul\":8609:8626   */\n      add\n        /* \"#utility.yul\":8602:8649   */\n      mstore\n        /* \"#utility.yul\":8666:8797   */\n      tag_220\n        /* \"#utility.yul\":8792:8796   */\n      dup2\n        /* \"#utility.yul\":8666:8797   */\n      tag_105\n      jump\t// in\n    tag_220:\n        /* \"#utility.yul\":8658:8797   */\n      swap1\n      pop\n        /* \"#utility.yul\":8385:8804   */\n      swap2\n      swap1\n      pop\n      jump\t// out\n        /* \"#utility.yul\":8810:9030   */\n    tag_106:\n        /* \"#utility.yul\":8950:8984   */\n      0x546865206964206d757374206265206c657373206f7220657175616c20746f20\n        /* \"#utility.yul\":8946:8947   */\n      0x00\n        /* \"#utility.yul\":8938:8944   */\n      dup3\n        /* \"#utility.yul\":8934:8948   */\n      add\n        /* \"#utility.yul\":8927:8985   */\n      mstore\n        /* \"#utility.yul\":9019:9022   */\n      0x3400000000000000000000000000000000000000000000000000000000000000\n        /* \"#utility.yul\":9014:9016   */\n      0x20\n        /* \"#utility.yul\":9006:9012   */\n      dup3\n        /* \"#utility.yul\":9002:9017   */\n      add\n        /* \"#utility.yul\":8995:9023   */\n      mstore\n        /* \"#utility.yul\":8810:9030   */\n      pop\n      jump\t// out\n        /* \"#utility.yul\":9036:9402   */\n    tag_107:\n        /* \"#utility.yul\":9178:9181   */\n      0x00\n        /* \"#utility.yul\":9199:9266   */\n      tag_223\n        /* \"#utility.yul\":9263:9265   */\n      0x21\n        /* \"#utility.yul\":9258:9261   */\n      dup4\n        /* \"#utility.yul\":9199:9266   */\n      tag_77\n      jump\t// in\n    tag_223:\n        /* \"#utility.yul\":9192:9266   */\n      swap2\n      pop\n        /* \"#utility.yul\":9275:9368   */\n      tag_224\n        /* \"#utility.yul\":9364:9367   */\n      dup3\n        /* \"#utility.yul\":9275:9368   */\n      tag_106\n      jump\t// in\n    tag_224:\n        /* \"#utility.yul\":9393:9395   */\n      0x40\n        /* \"#utility.yul\":9388:9391   */\n      dup3\n        /* \"#utility.yul\":9384:9396   */\n      add\n        /* \"#utility.yul\":9377:9396   */\n      swap1\n      pop\n        /* \"#utility.yul\":9036:9402   */\n      swap2\n      swap1\n      pop\n      jump\t// out\n        /* \"#utility.yul\":9408:9827   */\n    tag_44:\n        /* \"#utility.yul\":9574:9578   */\n      0x00\n        /* \"#utility.yul\":9612:9614   */\n      0x20\n        /* \"#utility.yul\":9601:9610   */\n      dup3\n        /* \"#utility.yul\":9597:9615   */\n      add\n        /* \"#utility.yul\":9589:9615   */\n      swap1\n      pop\n        /* \"#utility.yul\":9661:9670   */\n      dup2\n        /* \"#utility.yul\":9655:9659   */\n      dup2\n        /* \"#utility.yul\":9651:9671   */\n      sub\n        /* \"#utility.yul\":9647:9648   */\n      0x00\n        /* \"#utility.yul\":9636:9645   */\n      dup4\n        /* \"#utility.yul\":9632:9649   */\n      add\n        /* \"#utility.yul\":9625:9672   */\n      mstore\n        /* \"#utility.yul\":9689:9820   */\n      tag_226\n        /* \"#utility.yul\":9815:9819   */\n      dup2\n        /* \"#utility.yul\":9689:9820   */\n      tag_107\n      jump\t// in\n    tag_226:\n        /* \"#utility.yul\":9681:9820   */\n      swap1\n      pop\n        /* \"#utility.yul\":9408:9827   */\n      swap2\n      swap1\n      pop\n      jump\t// out\n        /* \"#utility.yul\":9833:10007   */\n    tag_108:\n        /* \"#utility.yul\":9973:9999   */\n      0x416c72656164792063686f6f7365206120636f757273652e0000000000000000\n        /* \"#utility.yul\":9969:9970   */\n      0x00\n        /* \"#utility.yul\":9961:9967   */\n      dup3\n        /* \"#utility.yul\":9957:9971   */\n      add\n        /* \"#utility.yul\":9950:10000   */\n      mstore\n        /* \"#utility.yul\":9833:10007   */\n      pop\n      jump\t// out\n        /* \"#utility.yul\":10013:10379   */\n    tag_109:\n        /* \"#utility.yul\":10155:10158   */\n      0x00\n        /* \"#utility.yul\":10176:10243   */\n      tag_229\n        /* \"#utility.yul\":10240:10242   */\n      0x18\n        /* \"#utility.yul\":10235:10238   */\n      dup4\n        /* \"#utility.yul\":10176:10243   */\n      tag_77\n      jump\t// in\n    tag_229:\n        /* \"#utility.yul\":10169:10243   */\n      swap2\n      pop\n        /* \"#utility.yul\":10252:10345   */\n      tag_230\n        /* \"#utility.yul\":10341:10344   */\n      dup3\n        /* \"#utility.yul\":10252:10345   */\n      tag_108\n      jump\t// in\n    tag_230:\n        /* \"#utility.yul\":10370:10372   */\n      0x20\n        /* \"#utility.yul\":10365:10368   */\n      dup3\n        /* \"#utility.yul\":10361:10373   */\n      add\n        /* \"#utility.yul\":10354:10373   */\n      swap1\n      pop\n        /* \"#utility.yul\":10013:10379   */\n      swap2\n      swap1\n      pop\n      jump\t// out\n        /* \"#utility.yul\":10385:10804   */\n    tag_47:\n        /* \"#utility.yul\":10551:10555   */\n      0x00\n        /* \"#utility.yul\":10589:10591   */\n      0x20\n        /* \"#utility.yul\":10578:10587   */\n      dup3\n        /* \"#utility.yul\":10574:10592   */\n      add\n        /* \"#utility.yul\":10566:10592   */\n      swap1\n      pop\n        /* \"#utility.yul\":10638:10647   */\n      dup2\n        /* \"#utility.yul\":10632:10636   */\n      dup2\n        /* \"#utility.yul\":10628:10648   */\n      sub\n        /* \"#utility.yul\":10624:10625   */\n      0x00\n        /* \"#utility.yul\":10613:10622   */\n      dup4\n        /* \"#utility.yul\":10609:10626   */\n      add\n        /* \"#utility.yul\":10602:10649   */\n      mstore\n        /* \"#utility.yul\":10666:10797   */\n      tag_232\n        /* \"#utility.yul\":10792:10796   */\n      dup2\n        /* \"#utility.yul\":10666:10797   */\n      tag_109\n      jump\t// in\n    tag_232:\n        /* \"#utility.yul\":10658:10797   */\n      swap1\n      pop\n        /* \"#utility.yul\":10385:10804   */\n      swap2\n      swap1\n      pop\n      jump\t// out\n        /* \"#utility.yul\":10810:10951   */\n    tag_110:\n        /* \"#utility.yul\":10859:10863   */\n      0x00\n        /* \"#utility.yul\":10882:10885   */\n      dup2\n        /* \"#utility.yul\":10874:10885   */\n      swap1\n      pop\n        /* \"#utility.yul\":10905:10908   */\n      dup2\n        /* \"#utility.yul\":10902:10903   */\n      0x00\n        /* \"#utility.yul\":10895:10909   */\n      mstore\n        /* \"#utility.yul\":10939:10943   */\n      0x20\n        /* \"#utility.yul\":10936:10937   */\n      0x00\n        /* \"#utility.yul\":10926:10944   */\n      keccak256\n        /* \"#utility.yul\":10918:10944   */\n      swap1\n      pop\n        /* \"#utility.yul\":10810:10951   */\n      swap2\n      swap1\n      pop\n      jump\t// out\n        /* \"#utility.yul\":10957:11050   */\n    tag_111:\n        /* \"#utility.yul\":10994:11000   */\n      0x00\n        /* \"#utility.yul\":11041:11043   */\n      0x20\n        /* \"#utility.yul\":11036:11038   */\n      0x1f\n        /* \"#utility.yul\":11029:11034   */\n      dup4\n        /* \"#utility.yul\":11025:11039   */\n      add\n        /* \"#utility.yul\":11021:11044   */\n      div\n        /* \"#utility.yul\":11011:11044   */\n      swap1\n      pop\n        /* \"#utility.yul\":10957:11050   */\n      swap2\n      swap1\n      pop\n      jump\t// out\n        /* \"#utility.yul\":11056:11163   */\n    tag_112:\n        /* \"#utility.yul\":11100:11108   */\n      0x00\n        /* \"#utility.yul\":11150:11155   */\n      dup3\n        /* \"#utility.yul\":11144:11148   */\n      dup3\n        /* \"#utility.yul\":11140:11156   */\n      shl\n        /* \"#utility.yul\":11119:11156   */\n      swap1\n      pop\n        /* \"#utility.yul\":11056:11163   */\n      swap3\n      swap2\n      pop\n      pop\n      jump\t// out\n        /* \"#utility.yul\":11169:11562   */\n    tag_113:\n        /* \"#utility.yul\":11238:11244   */\n      0x00\n        /* \"#utility.yul\":11288:11289   */\n      0x08\n        /* \"#utility.yul\":11276:11286   */\n      dup4\n        /* \"#utility.yul\":11272:11290   */\n      mul\n        /* \"#utility.yul\":11311:11408   */\n      tag_237\n        /* \"#utility.yul\":11341:11407   */\n      0xffffffffffffffffffffffffffffffffffffffffffffffffffffffffffffffff\n        /* \"#utility.yul\":11330:11339   */\n      dup3\n        /* \"#utility.yul\":11311:11408   */\n      tag_112\n      jump\t// in\n    tag_237:\n        /* \"#utility.yul\":11429:11468   */\n      tag_238\n        /* \"#utility.yul\":11459:11467   */\n      dup7\n        /* \"#utility.yul\":11448:11457   */\n      dup4\n        /* \"#utility.yul\":11429:11468   */\n      tag_112\n      jump\t// in\n    tag_238:\n        /* \"#utility.yul\":11417:11468   */\n      swap6\n      pop\n        /* \"#utility.yul\":11501:11505   */\n      dup1\n        /* \"#utility.yul\":11497:11506   */\n      not\n        /* \"#utility.yul\":11490:11495   */\n      dup5\n        /* \"#utility.yul\":11486:11507   */\n      and\n        /* \"#utility.yul\":11477:11507   */\n      swap4\n      pop\n        /* \"#utility.yul\":11550:11554   */\n      dup1\n        /* \"#utility.yul\":11540:11548   */\n      dup7\n        /* \"#utility.yul\":11536:11555   */\n      and\n        /* \"#utility.yul\":11529:11534   */\n      dup5\n        /* \"#utility.yul\":11526:11556   */\n      or\n        /* \"#utility.yul\":11516:11556   */\n      swap3\n      pop\n        /* \"#utility.yul\":11245:11562   */\n      pop\n      pop\n        /* \"#utility.yul\":11169:11562   */\n      swap4\n      swap3\n      pop\n      pop\n      pop\n      jump\t// out\n        /* \"#utility.yul\":11568:11628   */\n    tag_114:\n        /* \"#utility.yul\":11596:11599   */\n      0x00\n        /* \"#utility.yul\":11617:11622   */\n      dup2\n        /* \"#utility.yul\":11610:11622   */\n      swap1\n      pop\n        /* \"#utility.yul\":11568:11628   */\n      swap2\n      swap1\n      pop\n      jump\t// out\n        /* \"#utility.yul\":11634:11776   */\n    tag_115:\n        /* \"#utility.yul\":11684:11693   */\n      0x00\n        /* \"#utility.yul\":11717:11770   */\n      tag_241\n        /* \"#utility.yul\":11735:11769   */\n      tag_242\n        /* \"#utility.yul\":11744:11768   */\n      tag_243\n        /* \"#utility.yul\":11762:11767   */\n      dup5\n        /* \"#utility.yul\":11744:11768   */\n      tag_84\n      jump\t// in\n    tag_243:\n        /* \"#utility.yul\":11735:11769   */\n      tag_114\n      jump\t// in\n    tag_242:\n        /* \"#utility.yul\":11717:11770   */\n      tag_84\n      jump\t// in\n    tag_241:\n        /* \"#utility.yul\":11704:11770   */\n      swap1\n      pop\n        /* \"#utility.yul\":11634:11776   */\n      swap2\n      swap1\n      pop\n      jump\t// out\n        /* \"#utility.yul\":11782:11857   */\n    tag_116:\n        /* \"#utility.yul\":11825:11828   */\n      0x00\n        /* \"#utility.yul\":11846:11851   */\n      dup2\n        /* \"#utility.yul\":11839:11851   */\n      swap1\n      pop\n        /* \"#utility.yul\":11782:11857   */\n      swap2\n      swap1\n      pop\n      jump\t// out\n        /* \"#utility.yul\":11863:12132   */\n    tag_117:\n        /* \"#utility.yul\":11973:12012   */\n      tag_246\n        /* \"#utility.yul\":12004:12011   */\n      dup4\n        /* \"#utility.yul\":11973:12012   */\n      tag_115\n      jump\t// in\n    tag_246:\n        /* \"#utility.yul\":12034:12125   */\n      tag_247\n        /* \"#utility.yul\":12083:12124   */\n      tag_248\n        /* \"#utility.yul\":12107:12123   */\n      dup3\n        /* \"#utility.yul\":12083:12124   */\n      tag_116\n      jump\t// in\n    tag_248:\n        /* \"#utility.yul\":12075:12081   */\n      dup5\n        /* \"#utility.yul\":12068:12072   */\n      dup5\n        /* \"#utility.yul\":12062:12073   */\n      sload\n        /* \"#utility.yul\":12034:12125   */\n      tag_113\n      jump\t// in\n    tag_247:\n        /* \"#utility.yul\":12028:12032   */\n      dup3\n        /* \"#utility.yul\":12021:12126   */\n      sstore\n        /* \"#utility.yul\":11939:12132   */\n      pop\n        /* \"#utility.yul\":11863:12132   */\n      pop\n      pop\n      pop\n      jump\t// out\n        /* \"#utility.yul\":12138:12211   */\n    tag_118:\n        /* \"#utility.yul\":12183:12186   */\n      0x00\n        /* \"#utility.yul\":12138:12211   */\n      swap1\n      jump\t// out\n        /* \"#utility.yul\":12217:12406   */\n    tag_119:\n        /* \"#utility.yul\":12294:12326   */\n      tag_251\n      tag_118\n      jump\t// in\n    tag_251:\n        /* \"#utility.yul\":12335:12400   */\n      tag_252\n        /* \"#utility.yul\":12393:12399   */\n      dup2\n        /* \"#utility.yul\":12385:12391   */\n      dup5\n        /* \"#utility.yul\":12379:12383   */\n      dup5\n        /* \"#utility.yul\":12335:12400   */\n      tag_117\n      jump\t// in\n    tag_252:\n        /* \"#utility.yul\":12270:12406   */\n      pop\n        /* \"#utility.yul\":12217:12406   */\n      pop\n      pop\n      jump\t// out\n        /* \"#utility.yul\":12412:12598   */\n    tag_120:\n        /* \"#utility.yul\":12472:12592   */\n    tag_254:\n        /* \"#utility.yul\":12489:12492   */\n      dup2\n        /* \"#utility.yul\":12482:12487   */\n      dup2\n        /* \"#utility.yul\":12479:12493   */\n      lt\n        /* \"#utility.yul\":12472:12592   */\n      iszero\n      tag_256\n      jumpi\n        /* \"#utility.yul\":12543:12582   */\n      tag_257\n        /* \"#utility.yul\":12580:12581   */\n      0x00\n        /* \"#utility.yul\":12573:12578   */\n      dup3\n        /* \"#utility.yul\":12543:12582   */\n      tag_119\n      jump\t// in\n    tag_257:\n        /* \"#utility.yul\":12516:12517   */\n      0x01\n        /* \"#utility.yul\":12509:12514   */\n      dup2\n        /* \"#utility.yul\":12505:12518   */\n      add\n        /* \"#utility.yul\":12496:12518   */\n      swap1\n      pop\n        /* \"#utility.yul\":12472:12592   */\n      jump(tag_254)\n    tag_256:\n        /* \"#utility.yul\":12412:12598   */\n      pop\n      pop\n      jump\t// out\n        /* \"#utility.yul\":12604:13147   */\n    tag_121:\n        /* \"#utility.yul\":12705:12707   */\n      0x1f\n        /* \"#utility.yul\":12700:12703   */\n      dup3\n        /* \"#utility.yul\":12697:12708   */\n      gt\n        /* \"#utility.yul\":12694:13140   */\n      iszero\n      tag_259\n      jumpi\n        /* \"#utility.yul\":12739:12777   */\n      tag_260\n        /* \"#utility.yul\":12771:12776   */\n      dup2\n        /* \"#utility.yul\":12739:12777   */\n      tag_110\n      jump\t// in\n    tag_260:\n        /* \"#utility.yul\":12823:12852   */\n      tag_261\n        /* \"#utility.yul\":12841:12851   */\n      dup5\n        /* \"#utility.yul\":12823:12852   */\n      tag_111\n      jump\t// in\n    tag_261:\n        /* \"#utility.yul\":12813:12821   */\n      dup2\n        /* \"#utility.yul\":12809:12853   */\n      add\n        /* \"#utility.yul\":13006:13008   */\n      0x20\n        /* \"#utility.yul\":12994:13004   */\n      dup6\n        /* \"#utility.yul\":12991:13009   */\n      lt\n        /* \"#utility.yul\":12988:13037   */\n      iszero\n      tag_262\n      jumpi\n        /* \"#utility.yul\":13027:13035   */\n      dup2\n        /* \"#utility.yul\":13012:13035   */\n      swap1\n      pop\n        /* \"#utility.yul\":12988:13037   */\n    tag_262:\n        /* \"#utility.yul\":13050:13130   */\n      tag_263\n        /* \"#utility.yul\":13106:13128   */\n      tag_264\n        /* \"#utility.yul\":13124:13127   */\n      dup6\n        /* \"#utility.yul\":13106:13128   */\n      tag_111\n      jump\t// in\n    tag_264:\n        /* \"#utility.yul\":13096:13104   */\n      dup4\n        /* \"#utility.yul\":13092:13129   */\n      add\n        /* \"#utility.yul\":13079:13090   */\n      dup3\n        /* \"#utility.yul\":13050:13130   */\n      tag_120\n      jump\t// in\n    tag_263:\n        /* \"#utility.yul\":12709:13140   */\n      pop\n      pop\n        /* \"#utility.yul\":12694:13140   */\n    tag_259:\n        /* \"#utility.yul\":12604:13147   */\n      pop\n      pop\n      pop\n      jump\t// out\n        /* \"#utility.yul\":13153:13270   */\n    tag_122:\n        /* \"#utility.yul\":13207:13215   */\n      0x00\n        /* \"#utility.yul\":13257:13262   */\n      dup3\n        /* \"#utility.yul\":13251:13255   */\n      dup3\n        /* \"#utility.yul\":13247:13263   */\n      shr\n        /* \"#utility.yul\":13226:13263   */\n      swap1\n      pop\n        /* \"#utility.yul\":13153:13270   */\n      swap3\n      swap2\n      pop\n      pop\n      jump\t// out\n        /* \"#utility.yul\":13276:13445   */\n    tag_123:\n        /* \"#utility.yul\":13320:13326   */\n      0x00\n        /* \"#utility.yul\":13353:13404   */\n      tag_267\n        /* \"#utility.yul\":13401:13402   */\n      0x00\n        /* \"#utility.yul\":13397:13403   */\n      not\n        /* \"#utility.yul\":13389:13394   */\n      dup5\n        /* \"#utility.yul\":13386:13387   */\n      0x08\n        /* \"#utility.yul\":13382:13395   */\n      mul\n        /* \"#utility.yul\":13353:13404   */\n      tag_122\n      jump\t// in\n    tag_267:\n        /* \"#utility.yul\":13349:13405   */\n      not\n        /* \"#utility.yul\":13434:13438   */\n      dup1\n        /* \"#utility.yul\":13428:13432   */\n      dup4\n        /* \"#utility.yul\":13424:13439   */\n      and\n        /* \"#utility.yul\":13414:13439   */\n      swap2\n      pop\n        /* \"#utility.yul\":13327:13445   */\n      pop\n        /* \"#utility.yul\":13276:13445   */\n      swap3\n      swap2\n      pop\n      pop\n      jump\t// out\n        /* \"#utility.yul\":13450:13745   */\n    tag_124:\n        /* \"#utility.yul\":13526:13530   */\n      0x00\n        /* \"#utility.yul\":13672:13701   */\n      tag_269\n        /* \"#utility.yul\":13697:13700   */\n      dup4\n        /* \"#utility.yul\":13691:13695   */\n      dup4\n        /* \"#utility.yul\":13672:13701   */\n      tag_123\n      jump\t// in\n    tag_269:\n        /* \"#utility.yul\":13664:13701   */\n      swap2\n      pop\n        /* \"#utility.yul\":13734:13737   */\n      dup3\n        /* \"#utility.yul\":13731:13732   */\n      0x02\n        /* \"#utility.yul\":13727:13738   */\n      mul\n        /* \"#utility.yul\":13721:13725   */\n      dup3\n        /* \"#utility.yul\":13718:13739   */\n      or\n        /* \"#utility.yul\":13710:13739   */\n      swap1\n      pop\n        /* \"#utility.yul\":13450:13745   */\n      swap3\n      swap2\n      pop\n      pop\n      jump\t// out\n        /* \"#utility.yul\":13750:15145   */\n    tag_49:\n        /* \"#utility.yul\":13867:13904   */\n      tag_271\n        /* \"#utility.yul\":13900:13903   */\n      dup3\n        /* \"#utility.yul\":13867:13904   */\n      tag_76\n      jump\t// in\n    tag_271:\n        /* \"#utility.yul\":13969:13987   */\n      0xffffffffffffffff\n        /* \"#utility.yul\":13961:13967   */\n      dup2\n        /* \"#utility.yul\":13958:13988   */\n      gt\n        /* \"#utility.yul\":13955:14011   */\n      iszero\n      tag_272\n      jumpi\n        /* \"#utility.yul\":13991:14009   */\n      tag_273\n      tag_90\n      jump\t// in\n    tag_273:\n        /* \"#utility.yul\":13955:14011   */\n    tag_272:\n        /* \"#utility.yul\":14035:14073   */\n      tag_274\n        /* \"#utility.yul\":14067:14071   */\n      dup3\n        /* \"#utility.yul\":14061:14072   */\n      sload\n        /* \"#utility.yul\":14035:14073   */\n      tag_33\n      jump\t// in\n    tag_274:\n        /* \"#utility.yul\":14120:14187   */\n      tag_275\n        /* \"#utility.yul\":14180:14186   */\n      dup3\n        /* \"#utility.yul\":14172:14178   */\n      dup3\n        /* \"#utility.yul\":14166:14170   */\n      dup6\n        /* \"#utility.yul\":14120:14187   */\n      tag_121\n      jump\t// in\n    tag_275:\n        /* \"#utility.yul\":14214:14215   */\n      0x00\n        /* \"#utility.yul\":14238:14242   */\n      0x20\n        /* \"#utility.yul\":14225:14242   */\n      swap1\n      pop\n        /* \"#utility.yul\":14270:14272   */\n      0x1f\n        /* \"#utility.yul\":14262:14268   */\n      dup4\n        /* \"#utility.yul\":14259:14273   */\n      gt\n        /* \"#utility.yul\":14287:14288   */\n      0x01\n        /* \"#utility.yul\":14282:14900   */\n      dup2\n      eq\n      tag_277\n      jumpi\n        /* \"#utility.yul\":14944:14945   */\n      0x00\n        /* \"#utility.yul\":14961:14967   */\n      dup5\n        /* \"#utility.yul\":14958:15035   */\n      iszero\n      tag_278\n      jumpi\n        /* \"#utility.yul\":15010:15019   */\n      dup3\n        /* \"#utility.yul\":15005:15008   */\n      dup8\n        /* \"#utility.yul\":15001:15020   */\n      add\n        /* \"#utility.yul\":14995:15021   */\n      mload\n        /* \"#utility.yul\":14986:15021   */\n      swap1\n      pop\n        /* \"#utility.yul\":14958:15035   */\n    tag_278:\n        /* \"#utility.yul\":15061:15128   */\n      tag_279\n        /* \"#utility.yul\":15121:15127   */\n      dup6\n        /* \"#utility.yul\":15114:15119   */\n      dup3\n        /* \"#utility.yul\":15061:15128   */\n      tag_124\n      jump\t// in\n    tag_279:\n        /* \"#utility.yul\":15055:15059   */\n      dup7\n        /* \"#utility.yul\":15048:15129   */\n      sstore\n        /* \"#utility.yul\":14917:15139   */\n      pop\n        /* \"#utility.yul\":14252:15139   */\n      jump(tag_276)\n        /* \"#utility.yul\":14282:14900   */\n    tag_277:\n        /* \"#utility.yul\":14334:14338   */\n      0x1f\n        /* \"#utility.yul\":14330:14339   */\n      not\n        /* \"#utility.yul\":14322:14328   */\n      dup5\n        /* \"#utility.yul\":14318:14340   */\n      and\n        /* \"#utility.yul\":14368:14405   */\n      tag_280\n        /* \"#utility.yul\":14400:14404   */\n      dup7\n        /* \"#utility.yul\":14368:14405   */\n      tag_110\n      jump\t// in\n    tag_280:\n        /* \"#utility.yul\":14427:14428   */\n      0x00\n        /* \"#utility.yul\":14441:14649   */\n    tag_281:\n        /* \"#utility.yul\":14455:14462   */\n      dup3\n        /* \"#utility.yul\":14452:14453   */\n      dup2\n        /* \"#utility.yul\":14449:14463   */\n      lt\n        /* \"#utility.yul\":14441:14649   */\n      iszero\n      tag_283\n      jumpi\n        /* \"#utility.yul\":14534:14543   */\n      dup5\n        /* \"#utility.yul\":14529:14532   */\n      dup10\n        /* \"#utility.yul\":14525:14544   */\n      add\n        /* \"#utility.yul\":14519:14545   */\n      mload\n        /* \"#utility.yul\":14511:14517   */\n      dup3\n        /* \"#utility.yul\":14504:14546   */\n      sstore\n        /* \"#utility.yul\":14585:14586   */\n      0x01\n        /* \"#utility.yul\":14577:14583   */\n      dup3\n        /* \"#utility.yul\":14573:14587   */\n      add\n        /* \"#utility.yul\":14563:14587   */\n      swap2\n      pop\n        /* \"#utility.yul\":14632:14634   */\n      0x20\n        /* \"#utility.yul\":14621:14630   */\n      dup6\n        /* \"#utility.yul\":14617:14635   */\n      add\n        /* \"#utility.yul\":14604:14635   */\n      swap5\n      pop\n        /* \"#utility.yul\":14478:14482   */\n      0x20\n        /* \"#utility.yul\":14475:14476   */\n      dup2\n        /* \"#utility.yul\":14471:14483   */\n      add\n        /* \"#utility.yul\":14466:14483   */\n      swap1\n      pop\n        /* \"#utility.yul\":14441:14649   */\n      jump(tag_281)\n    tag_283:\n        /* \"#utility.yul\":14677:14683   */\n      dup7\n        /* \"#utility.yul\":14668:14675   */\n      dup4\n        /* \"#utility.yul\":14665:14684   */\n      lt\n        /* \"#utility.yul\":14662:14841   */\n      iszero\n      tag_284\n      jumpi\n        /* \"#utility.yul\":14735:14744   */\n      dup5\n        /* \"#utility.yul\":14730:14733   */\n      dup10\n        /* \"#utility.yul\":14726:14745   */\n      add\n        /* \"#utility.yul\":14720:14746   */\n      mload\n        /* \"#utility.yul\":14778:14826   */\n      tag_285\n        /* \"#utility.yul\":14820:14824   */\n      0x1f\n        /* \"#utility.yul\":14812:14818   */\n      dup10\n        /* \"#utility.yul\":14808:14825   */\n      and\n        /* \"#utility.yul\":14797:14806   */\n      dup3\n        /* \"#utility.yul\":14778:14826   */\n      tag_123\n      jump\t// in\n    tag_285:\n        /* \"#utility.yul\":14770:14776   */\n      dup4\n        /* \"#utility.yul\":14763:14827   */\n      sstore\n        /* \"#utility.yul\":14685:14841   */\n      pop\n        /* \"#utility.yul\":14662:14841   */\n    tag_284:\n        /* \"#utility.yul\":14887:14888   */\n      0x01\n        /* \"#utility.yul\":14883:14884   */\n      0x02\n        /* \"#utility.yul\":14875:14881   */\n      dup9\n        /* \"#utility.yul\":14871:14885   */\n      mul\n        /* \"#utility.yul\":14867:14889   */\n      add\n        /* \"#utility.yul\":14861:14865   */\n      dup9\n        /* \"#utility.yul\":14854:14890   */\n      sstore\n        /* \"#utility.yul\":14289:14900   */\n      pop\n      pop\n      pop\n        /* \"#utility.yul\":14252:15139   */\n    tag_276:\n      pop\n        /* \"#utility.yul\":13842:15145   */\n      pop\n      pop\n      pop\n        /* \"#utility.yul\":13750:15145   */\n      pop\n      pop\n      jump\t// out\n        /* \"#utility.yul\":15151:15331   */\n    tag_125:\n        /* \"#utility.yul\":15199:15276   */\n      0x4e487b7100000000000000000000000000000000000000000000000000000000\n        /* \"#utility.yul\":15196:15197   */\n      0x00\n        /* \"#utility.yul\":15189:15277   */\n      mstore\n        /* \"#utility.yul\":15296:15300   */\n      0x11\n        /* \"#utility.yul\":15293:15294   */\n      0x04\n        /* \"#utility.yul\":15286:15301   */\n      mstore\n        /* \"#utility.yul\":15320:15324   */\n      0x24\n        /* \"#utility.yul\":15317:15318   */\n      0x00\n        /* \"#utility.yul\":15310:15325   */\n      revert\n        /* \"#utility.yul\":15337:15528   */\n    tag_51:\n        /* \"#utility.yul\":15377:15380   */\n      0x00\n        /* \"#utility.yul\":15396:15416   */\n      tag_288\n        /* \"#utility.yul\":15414:15415   */\n      dup3\n        /* \"#utility.yul\":15396:15416   */\n      tag_84\n      jump\t// in\n    tag_288:\n        /* \"#utility.yul\":15391:15416   */\n      swap2\n      pop\n        /* \"#utility.yul\":15430:15450   */\n      tag_289\n        /* \"#utility.yul\":15448:15449   */\n      dup4\n        /* \"#utility.yul\":15430:15450   */\n      tag_84\n      jump\t// in\n    tag_289:\n        /* \"#utility.yul\":15425:15450   */\n      swap3\n      pop\n        /* \"#utility.yul\":15473:15474   */\n      dup3\n        /* \"#utility.yul\":15470:15471   */\n      dup3\n        /* \"#utility.yul\":15466:15475   */\n      add\n        /* \"#utility.yul\":15459:15475   */\n      swap1\n      pop\n        /* \"#utility.yul\":15494:15497   */\n      dup1\n        /* \"#utility.yul\":15491:15492   */\n      dup3\n        /* \"#utility.yul\":15488:15498   */\n      gt\n        /* \"#utility.yul\":15485:15521   */\n      iszero\n      tag_290\n      jumpi\n        /* \"#utility.yul\":15501:15519   */\n      tag_291\n      tag_125\n      jump\t// in\n    tag_291:\n        /* \"#utility.yul\":15485:15521   */\n    tag_290:\n        /* \"#utility.yul\":15337:15528   */\n      swap3\n      swap2\n      pop\n      pop\n      jump\t// out\n        /* \"#utility.yul\":15534:15767   */\n    tag_75:\n        /* \"#utility.yul\":15573:15576   */\n      0x00\n        /* \"#utility.yul\":15596:15620   */\n      tag_293\n        /* \"#utility.yul\":15614:15619   */\n      dup3\n        /* \"#utility.yul\":15596:15620   */\n      tag_84\n      jump\t// in\n    tag_293:\n        /* \"#utility.yul\":15587:15620   */\n      swap2\n      pop\n        /* \"#utility.yul\":15642:15708   */\n      0xffffffffffffffffffffffffffffffffffffffffffffffffffffffffffffffff\n        /* \"#utility.yul\":15635:15640   */\n      dup3\n        /* \"#utility.yul\":15632:15709   */\n      sub\n        /* \"#utility.yul\":15629:15732   */\n      tag_294\n      jumpi\n        /* \"#utility.yul\":15712:15730   */\n      tag_295\n      tag_125\n      jump\t// in\n    tag_295:\n        /* \"#utility.yul\":15629:15732   */\n    tag_294:\n        /* \"#utility.yul\":15759:15760   */\n      0x01\n        /* \"#utility.yul\":15752:15757   */\n      dup3\n        /* \"#utility.yul\":15748:15761   */\n      add\n        /* \"#utility.yul\":15741:15761   */\n      swap1\n      pop\n        /* \"#utility.yul\":15534:15767   */\n      swap2\n      swap1\n      pop\n      jump\t// out\n    stop\n    data_5c70975c2b0c5530c20694c6c0aa88c9becbdbb0f8b71692471957c0e23ab5ce 5b303030315d20596f752061726520696e207468652077616974696e67206c69737421\n    data_9687cf985cb6222715aaef6758d3670bafe2b0c2757af4d8855ddd35ba24781d 5b303030305d20596f752072656769737465722074686520636f75727365207375636365737366756c6c79\n\n    auxdata: 0xa26469706673582212200fb681cd6ab04bd027711472268f5580f371c415176507094161e6b5008fd72664736f6c63430008110033\n}\n",
				"bytecode": {
					"linkReferences": {},
					"object": "608060405234801561001057600080fd5b5060005b60058110156100495760006001600083815260200190815260200160002081905550808061004190610088565b915050610014565b506100d0565b7f4e487b7100000000000000000000000000000000000000000000000000000000600052601160045260246000fd5b6000819050919050565b60006100938261007e565b91507fffffffffffffffffffffffffffffffffffffffffffffffffffffffffffffffff82036100c5576100c461004f565b5b600182019050919050565b610f34806100df6000396000f3fe608060405234801561001057600080fd5b50600436106100575760003560e01c8063653721471461005c57806396f979d21461007a578063a00fd3c8146100aa578063daadd00f146100c6578063e6f7eb7c146100f9575b600080fd5b610064610117565b604051610071919061064a565b60405180910390f35b610094600480360381019061008f91906106b6565b6101ee565b6040516100a191906106f2565b60405180910390f35b6100c460048036038101906100bf9190610842565b610206565b005b6100e060048036038101906100db91906108fc565b6103fe565b6040516100f09493929190610944565b60405180910390f35b61010161054b565b60405161010e91906106f2565b60405180910390f35b606060008060003373ffffffffffffffffffffffffffffffffffffffff1673ffffffffffffffffffffffffffffffffffffffff168152602001908152602001600020905080600301805461016a906109c6565b80601f0160208091040260200160405190810160405280929190818152602001828054610196906109c6565b80156101e35780601f106101b8576101008083540402835291602001916101e3565b820191906000526020600020905b8154815290600101906020018083116101c657829003601f168201915b505050505091505090565b60016020528060005260406000206000915090505481565b600082101561024a576040517f08c379a000000000000000000000000000000000000000000000000000000000815260040161024190610a69565b60405180910390fd5b600482111561028e576040517f08c379a000000000000000000000000000000000000000000000000000000000815260040161028590610afb565b60405180910390fd5b60008060003373ffffffffffffffffffffffffffffffffffffffff1673ffffffffffffffffffffffffffffffffffffffff16815260200190815260200160002090508060000160009054906101000a900460ff1615610322576040517f08c379a000000000000000000000000000000000000000000000000000000000815260040161031990610b67565b60405180910390fd5b60018160000160006101000a81548160ff021916908315150217905550818160010190816103509190610d33565b508281600201819055506001806000858152602001908152602001600020600082825461037d9190610e34565b92505081905550600a6001600085815260200190815260200160002054116103ce576040518060600160405280602b8152602001610ed4602b91398160030190816103c89190610d33565b506103f9565b604051806060016040528060238152602001610eb1602391398160030190816103f79190610d33565b505b505050565b60006020528060005260406000206000915090508060000160009054906101000a900460ff1690806001018054610434906109c6565b80601f0160208091040260200160405190810160405280929190818152602001828054610460906109c6565b80156104ad5780601f10610482576101008083540402835291602001916104ad565b820191906000526020600020905b81548152906001019060200180831161049057829003601f168201915b5050505050908060020154908060030180546104c8906109c6565b80601f01602080910402602001604051908101604052809291908181526020018280546104f4906109c6565b80156105415780601f1061051657610100808354040283529160200191610541565b820191906000526020600020905b81548152906001019060200180831161052457829003601f168201915b5050505050905084565b600061055561055a565b905090565b6000806000905060005b60058110156105b55781600160008381526020019081526020016000205411156105a257600160008281526020019081526020016000205491508092505b80806105ad90610e68565b915050610564565b505090565b600081519050919050565b600082825260208201905092915050565b60005b838110156105f45780820151818401526020810190506105d9565b60008484015250505050565b6000601f19601f8301169050919050565b600061061c826105ba565b61062681856105c5565b93506106368185602086016105d6565b61063f81610600565b840191505092915050565b600060208201905081810360008301526106648184610611565b905092915050565b6000604051905090565b600080fd5b600080fd5b6000819050919050565b61069381610680565b811461069e57600080fd5b50565b6000813590506106b08161068a565b92915050565b6000602082840312156106cc576106cb610676565b5b60006106da848285016106a1565b91505092915050565b6106ec81610680565b82525050565b600060208201905061070760008301846106e3565b92915050565b600080fd5b600080fd5b7f4e487b7100000000000000000000000000000000000000000000000000000000600052604160045260246000fd5b61074f82610600565b810181811067ffffffffffffffff8211171561076e5761076d610717565b5b80604052505050565b600061078161066c565b905061078d8282610746565b919050565b600067ffffffffffffffff8211156107ad576107ac610717565b5b6107b682610600565b9050602081019050919050565b82818337600083830152505050565b60006107e56107e084610792565b610777565b90508281526020810184848401111561080157610800610712565b5b61080c8482856107c3565b509392505050565b600082601f8301126108295761082861070d565b5b81356108398482602086016107d2565b91505092915050565b6000806040838503121561085957610858610676565b5b6000610867858286016106a1565b925050602083013567ffffffffffffffff8111156108885761088761067b565b5b61089485828601610814565b9150509250929050565b600073ffffffffffffffffffffffffffffffffffffffff82169050919050565b60006108c98261089e565b9050919050565b6108d9816108be565b81146108e457600080fd5b50565b6000813590506108f6816108d0565b92915050565b60006020828403121561091257610911610676565b5b6000610920848285016108e7565b91505092915050565b60008115159050919050565b61093e81610929565b82525050565b60006080820190506109596000830187610935565b818103602083015261096b8186610611565b905061097a60408301856106e3565b818103606083015261098c8184610611565b905095945050505050565b7f4e487b7100000000000000000000000000000000000000000000000000000000600052602260045260246000fd5b600060028204905060018216806109de57607f821691505b6020821081036109f1576109f0610997565b5b50919050565b7f546865206964206d7573742062652067726561746572206f7220657175616c2060008201527f746f203000000000000000000000000000000000000000000000000000000000602082015250565b6000610a536024836105c5565b9150610a5e826109f7565b604082019050919050565b60006020820190508181036000830152610a8281610a46565b9050919050565b7f546865206964206d757374206265206c657373206f7220657175616c20746f2060008201527f3400000000000000000000000000000000000000000000000000000000000000602082015250565b6000610ae56021836105c5565b9150610af082610a89565b604082019050919050565b60006020820190508181036000830152610b1481610ad8565b9050919050565b7f416c72656164792063686f6f7365206120636f757273652e0000000000000000600082015250565b6000610b516018836105c5565b9150610b5c82610b1b565b602082019050919050565b60006020820190508181036000830152610b8081610b44565b9050919050565b60008190508160005260206000209050919050565b60006020601f8301049050919050565b600082821b905092915050565b600060088302610be97fffffffffffffffffffffffffffffffffffffffffffffffffffffffffffffffff82610bac565b610bf38683610bac565b95508019841693508086168417925050509392505050565b6000819050919050565b6000610c30610c2b610c2684610680565b610c0b565b610680565b9050919050565b6000819050919050565b610c4a83610c15565b610c5e610c5682610c37565b848454610bb9565b825550505050565b600090565b610c73610c66565b610c7e818484610c41565b505050565b5b81811015610ca257610c97600082610c6b565b600181019050610c84565b5050565b601f821115610ce757610cb881610b87565b610cc184610b9c565b81016020851015610cd0578190505b610ce4610cdc85610b9c565b830182610c83565b50505b505050565b600082821c905092915050565b6000610d0a60001984600802610cec565b1980831691505092915050565b6000610d238383610cf9565b9150826002028217905092915050565b610d3c826105ba565b67ffffffffffffffff811115610d5557610d54610717565b5b610d5f82546109c6565b610d6a828285610ca6565b600060209050601f831160018114610d9d5760008415610d8b578287015190505b610d958582610d17565b865550610dfd565b601f198416610dab86610b87565b60005b82811015610dd357848901518255600182019150602085019450602081019050610dae565b86831015610df05784890151610dec601f891682610cf9565b8355505b6001600288020188555050505b505050505050565b7f4e487b7100000000000000000000000000000000000000000000000000000000600052601160045260246000fd5b6000610e3f82610680565b9150610e4a83610680565b9250828201905080821115610e6257610e61610e05565b5b92915050565b6000610e7382610680565b91507fffffffffffffffffffffffffffffffffffffffffffffffffffffffffffffffff8203610ea557610ea4610e05565b5b60018201905091905056fe5b303030315d20596f752061726520696e207468652077616974696e67206c697374215b303030305d20596f752072656769737465722074686520636f75727365207375636365737366756c6c79a26469706673582212200fb681cd6ab04bd027711472268f5580f371c415176507094161e6b5008fd72664736f6c63430008110033",
					"opcodes": "PUSH1 0x80 PUSH1 0x40 MSTORE CALLVALUE DUP1 ISZERO PUSH2 0x10 JUMPI PUSH1 0x0 DUP1 REVERT JUMPDEST POP PUSH1 0x0 JUMPDEST PUSH1 0x5 DUP2 LT ISZERO PUSH2 0x49 JUMPI PUSH1 0x0 PUSH1 0x1 PUSH1 0x0 DUP4 DUP2 MSTORE PUSH1 0x20 ADD SWAP1 DUP2 MSTORE PUSH1 0x20 ADD PUSH1 0x0 KECCAK256 DUP2 SWAP1 SSTORE POP DUP1 DUP1 PUSH2 0x41 SWAP1 PUSH2 0x88 JUMP JUMPDEST SWAP2 POP POP PUSH2 0x14 JUMP JUMPDEST POP PUSH2 0xD0 JUMP JUMPDEST PUSH32 0x4E487B7100000000000000000000000000000000000000000000000000000000 PUSH1 0x0 MSTORE PUSH1 0x11 PUSH1 0x4 MSTORE PUSH1 0x24 PUSH1 0x0 REVERT JUMPDEST PUSH1 0x0 DUP2 SWAP1 POP SWAP2 SWAP1 POP JUMP JUMPDEST PUSH1 0x0 PUSH2 0x93 DUP3 PUSH2 0x7E JUMP JUMPDEST SWAP2 POP PUSH32 0xFFFFFFFFFFFFFFFFFFFFFFFFFFFFFFFFFFFFFFFFFFFFFFFFFFFFFFFFFFFFFFFF DUP3 SUB PUSH2 0xC5 JUMPI PUSH2 0xC4 PUSH2 0x4F JUMP JUMPDEST JUMPDEST PUSH1 0x1 DUP3 ADD SWAP1 POP SWAP2 SWAP1 POP JUMP JUMPDEST PUSH2 0xF34 DUP1 PUSH2 0xDF PUSH1 0x0 CODECOPY PUSH1 0x0 RETURN INVALID PUSH1 0x80 PUSH1 0x40 MSTORE CALLVALUE DUP1 ISZERO PUSH2 0x10 JUMPI PUSH1 0x0 DUP1 REVERT JUMPDEST POP PUSH1 0x4 CALLDATASIZE LT PUSH2 0x57 JUMPI PUSH1 0x0 CALLDATALOAD PUSH1 0xE0 SHR DUP1 PUSH4 0x65372147 EQ PUSH2 0x5C JUMPI DUP1 PUSH4 0x96F979D2 EQ PUSH2 0x7A JUMPI DUP1 PUSH4 0xA00FD3C8 EQ PUSH2 0xAA JUMPI DUP1 PUSH4 0xDAADD00F EQ PUSH2 0xC6 JUMPI DUP1 PUSH4 0xE6F7EB7C EQ PUSH2 0xF9 JUMPI JUMPDEST PUSH1 0x0 DUP1 REVERT JUMPDEST PUSH2 0x64 PUSH2 0x117 JUMP JUMPDEST PUSH1 0x40 MLOAD PUSH2 0x71 SWAP2 SWAP1 PUSH2 0x64A JUMP JUMPDEST PUSH1 0x40 MLOAD DUP1 SWAP2 SUB SWAP1 RETURN JUMPDEST PUSH2 0x94 PUSH1 0x4 DUP1 CALLDATASIZE SUB DUP2 ADD SWAP1 PUSH2 0x8F SWAP2 SWAP1 PUSH2 0x6B6 JUMP JUMPDEST PUSH2 0x1EE JUMP JUMPDEST PUSH1 0x40 MLOAD PUSH2 0xA1 SWAP2 SWAP1 PUSH2 0x6F2 JUMP JUMPDEST PUSH1 0x40 MLOAD DUP1 SWAP2 SUB SWAP1 RETURN JUMPDEST PUSH2 0xC4 PUSH1 0x4 DUP1 CALLDATASIZE SUB DUP2 ADD SWAP1 PUSH2 0xBF SWAP2 SWAP1 PUSH2 0x842 JUMP JUMPDEST PUSH2 0x206 JUMP JUMPDEST STOP JUMPDEST PUSH2 0xE0 PUSH1 0x4 DUP1 CALLDATASIZE SUB DUP2 ADD SWAP1 PUSH2 0xDB SWAP2 SWAP1 PUSH2 0x8FC JUMP JUMPDEST PUSH2 0x3FE JUMP JUMPDEST PUSH1 0x40 MLOAD PUSH2 0xF0 SWAP5 SWAP4 SWAP3 SWAP2 SWAP1 PUSH2 0x944 JUMP JUMPDEST PUSH1 0x40 MLOAD DUP1 SWAP2 SUB SWAP1 RETURN JUMPDEST PUSH2 0x101 PUSH2 0x54B JUMP JUMPDEST PUSH1 0x40 MLOAD PUSH2 0x10E SWAP2 SWAP1 PUSH2 0x6F2 JUMP JUMPDEST PUSH1 0x40 MLOAD DUP1 SWAP2 SUB SWAP1 RETURN JUMPDEST PUSH1 0x60 PUSH1 0x0 DUP1 PUSH1 0x0 CALLER PUSH20 0xFFFFFFFFFFFFFFFFFFFFFFFFFFFFFFFFFFFFFFFF AND PUSH20 0xFFFFFFFFFFFFFFFFFFFFFFFFFFFFFFFFFFFFFFFF AND DUP2 MSTORE PUSH1 0x20 ADD SWAP1 DUP2 MSTORE PUSH1 0x20 ADD PUSH1 0x0 KECCAK256 SWAP1 POP DUP1 PUSH1 0x3 ADD DUP1 SLOAD PUSH2 0x16A SWAP1 PUSH2 0x9C6 JUMP JUMPDEST DUP1 PUSH1 0x1F ADD PUSH1 0x20 DUP1 SWAP2 DIV MUL PUSH1 0x20 ADD PUSH1 0x40 MLOAD SWAP1 DUP2 ADD PUSH1 0x40 MSTORE DUP1 SWAP3 SWAP2 SWAP1 DUP2 DUP2 MSTORE PUSH1 0x20 ADD DUP3 DUP1 SLOAD PUSH2 0x196 SWAP1 PUSH2 0x9C6 JUMP JUMPDEST DUP1 ISZERO PUSH2 0x1E3 JUMPI DUP1 PUSH1 0x1F LT PUSH2 0x1B8 JUMPI PUSH2 0x100 DUP1 DUP4 SLOAD DIV MUL DUP4 MSTORE SWAP2 PUSH1 0x20 ADD SWAP2 PUSH2 0x1E3 JUMP JUMPDEST DUP3 ADD SWAP2 SWAP1 PUSH1 0x0 MSTORE PUSH1 0x20 PUSH1 0x0 KECCAK256 SWAP1 JUMPDEST DUP2 SLOAD DUP2 MSTORE SWAP1 PUSH1 0x1 ADD SWAP1 PUSH1 0x20 ADD DUP1 DUP4 GT PUSH2 0x1C6 JUMPI DUP3 SWAP1 SUB PUSH1 0x1F AND DUP3 ADD SWAP2 JUMPDEST POP POP POP POP POP SWAP2 POP POP SWAP1 JUMP JUMPDEST PUSH1 0x1 PUSH1 0x20 MSTORE DUP1 PUSH1 0x0 MSTORE PUSH1 0x40 PUSH1 0x0 KECCAK256 PUSH1 0x0 SWAP2 POP SWAP1 POP SLOAD DUP2 JUMP JUMPDEST PUSH1 0x0 DUP3 LT ISZERO PUSH2 0x24A JUMPI PUSH1 0x40 MLOAD PUSH32 0x8C379A000000000000000000000000000000000000000000000000000000000 DUP2 MSTORE PUSH1 0x4 ADD PUSH2 0x241 SWAP1 PUSH2 0xA69 JUMP JUMPDEST PUSH1 0x40 MLOAD DUP1 SWAP2 SUB SWAP1 REVERT JUMPDEST PUSH1 0x4 DUP3 GT ISZERO PUSH2 0x28E JUMPI PUSH1 0x40 MLOAD PUSH32 0x8C379A000000000000000000000000000000000000000000000000000000000 DUP2 MSTORE PUSH1 0x4 ADD PUSH2 0x285 SWAP1 PUSH2 0xAFB JUMP JUMPDEST PUSH1 0x40 MLOAD DUP1 SWAP2 SUB SWAP1 REVERT JUMPDEST PUSH1 0x0 DUP1 PUSH1 0x0 CALLER PUSH20 0xFFFFFFFFFFFFFFFFFFFFFFFFFFFFFFFFFFFFFFFF AND PUSH20 0xFFFFFFFFFFFFFFFFFFFFFFFFFFFFFFFFFFFFFFFF AND DUP2 MSTORE PUSH1 0x20 ADD SWAP1 DUP2 MSTORE PUSH1 0x20 ADD PUSH1 0x0 KECCAK256 SWAP1 POP DUP1 PUSH1 0x0 ADD PUSH1 0x0 SWAP1 SLOAD SWAP1 PUSH2 0x100 EXP SWAP1 DIV PUSH1 0xFF AND ISZERO PUSH2 0x322 JUMPI PUSH1 0x40 MLOAD PUSH32 0x8C379A000000000000000000000000000000000000000000000000000000000 DUP2 MSTORE PUSH1 0x4 ADD PUSH2 0x319 SWAP1 PUSH2 0xB67 JUMP JUMPDEST PUSH1 0x40 MLOAD DUP1 SWAP2 SUB SWAP1 REVERT JUMPDEST PUSH1 0x1 DUP2 PUSH1 0x0 ADD PUSH1 0x0 PUSH2 0x100 EXP DUP2 SLOAD DUP2 PUSH1 0xFF MUL NOT AND SWAP1 DUP4 ISZERO ISZERO MUL OR SWAP1 SSTORE POP DUP2 DUP2 PUSH1 0x1 ADD SWAP1 DUP2 PUSH2 0x350 SWAP2 SWAP1 PUSH2 0xD33 JUMP JUMPDEST POP DUP3 DUP2 PUSH1 0x2 ADD DUP2 SWAP1 SSTORE POP PUSH1 0x1 DUP1 PUSH1 0x0 DUP6 DUP2 MSTORE PUSH1 0x20 ADD SWAP1 DUP2 MSTORE PUSH1 0x20 ADD PUSH1 0x0 KECCAK256 PUSH1 0x0 DUP3 DUP3 SLOAD PUSH2 0x37D SWAP2 SWAP1 PUSH2 0xE34 JUMP JUMPDEST SWAP3 POP POP DUP2 SWAP1 SSTORE POP PUSH1 0xA PUSH1 0x1 PUSH1 0x0 DUP6 DUP2 MSTORE PUSH1 0x20 ADD SWAP1 DUP2 MSTORE PUSH1 0x20 ADD PUSH1 0x0 KECCAK256 SLOAD GT PUSH2 0x3CE JUMPI PUSH1 0x40 MLOAD DUP1 PUSH1 0x60 ADD PUSH1 0x40 MSTORE DUP1 PUSH1 0x2B DUP2 MSTORE PUSH1 0x20 ADD PUSH2 0xED4 PUSH1 0x2B SWAP2 CODECOPY DUP2 PUSH1 0x3 ADD SWAP1 DUP2 PUSH2 0x3C8 SWAP2 SWAP1 PUSH2 0xD33 JUMP JUMPDEST POP PUSH2 0x3F9 JUMP JUMPDEST PUSH1 0x40 MLOAD DUP1 PUSH1 0x60 ADD PUSH1 0x40 MSTORE DUP1 PUSH1 0x23 DUP2 MSTORE PUSH1 0x20 ADD PUSH2 0xEB1 PUSH1 0x23 SWAP2 CODECOPY DUP2 PUSH1 0x3 ADD SWAP1 DUP2 PUSH2 0x3F7 SWAP2 SWAP1 PUSH2 0xD33 JUMP JUMPDEST POP JUMPDEST POP POP POP JUMP JUMPDEST PUSH1 0x0 PUSH1 0x20 MSTORE DUP1 PUSH1 0x0 MSTORE PUSH1 0x40 PUSH1 0x0 KECCAK256 PUSH1 0x0 SWAP2 POP SWAP1 POP DUP1 PUSH1 0x0 ADD PUSH1 0x0 SWAP1 SLOAD SWAP1 PUSH2 0x100 EXP SWAP1 DIV PUSH1 0xFF AND SWAP1 DUP1 PUSH1 0x1 ADD DUP1 SLOAD PUSH2 0x434 SWAP1 PUSH2 0x9C6 JUMP JUMPDEST DUP1 PUSH1 0x1F ADD PUSH1 0x20 DUP1 SWAP2 DIV MUL PUSH1 0x20 ADD PUSH1 0x40 MLOAD SWAP1 DUP2 ADD PUSH1 0x40 MSTORE DUP1 SWAP3 SWAP2 SWAP1 DUP2 DUP2 MSTORE PUSH1 0x20 ADD DUP3 DUP1 SLOAD PUSH2 0x460 SWAP1 PUSH2 0x9C6 JUMP JUMPDEST DUP1 ISZERO PUSH2 0x4AD JUMPI DUP1 PUSH1 0x1F LT PUSH2 0x482 JUMPI PUSH2 0x100 DUP1 DUP4 SLOAD DIV MUL DUP4 MSTORE SWAP2 PUSH1 0x20 ADD SWAP2 PUSH2 0x4AD JUMP JUMPDEST DUP3 ADD SWAP2 SWAP1 PUSH1 0x0 MSTORE PUSH1 0x20 PUSH1 0x0 KECCAK256 SWAP1 JUMPDEST DUP2 SLOAD DUP2 MSTORE SWAP1 PUSH1 0x1 ADD SWAP1 PUSH1 0x20 ADD DUP1 DUP4 GT PUSH2 0x490 JUMPI DUP3 SWAP1 SUB PUSH1 0x1F AND DUP3 ADD SWAP2 JUMPDEST POP POP POP POP POP SWAP1 DUP1 PUSH1 0x2 ADD SLOAD SWAP1 DUP1 PUSH1 0x3 ADD DUP1 SLOAD PUSH2 0x4C8 SWAP1 PUSH2 0x9C6 JUMP JUMPDEST DUP1 PUSH1 0x1F ADD PUSH1 0x20 DUP1 SWAP2 DIV MUL PUSH1 0x20 ADD PUSH1 0x40 MLOAD SWAP1 DUP2 ADD PUSH1 0x40 MSTORE DUP1 SWAP3 SWAP2 SWAP1 DUP2 DUP2 MSTORE PUSH1 0x20 ADD DUP3 DUP1 SLOAD PUSH2 0x4F4 SWAP1 PUSH2 0x9C6 JUMP JUMPDEST DUP1 ISZERO PUSH2 0x541 JUMPI DUP1 PUSH1 0x1F LT PUSH2 0x516 JUMPI PUSH2 0x100 DUP1 DUP4 SLOAD DIV MUL DUP4 MSTORE SWAP2 PUSH1 0x20 ADD SWAP2 PUSH2 0x541 JUMP JUMPDEST DUP3 ADD SWAP2 SWAP1 PUSH1 0x0 MSTORE PUSH1 0x20 PUSH1 0x0 KECCAK256 SWAP1 JUMPDEST DUP2 SLOAD DUP2 MSTORE SWAP1 PUSH1 0x1 ADD SWAP1 PUSH1 0x20 ADD DUP1 DUP4 GT PUSH2 0x524 JUMPI DUP3 SWAP1 SUB PUSH1 0x1F AND DUP3 ADD SWAP2 JUMPDEST POP POP POP POP POP SWAP1 POP DUP5 JUMP JUMPDEST PUSH1 0x0 PUSH2 0x555 PUSH2 0x55A JUMP JUMPDEST SWAP1 POP SWAP1 JUMP JUMPDEST PUSH1 0x0 DUP1 PUSH1 0x0 SWAP1 POP PUSH1 0x0 JUMPDEST PUSH1 0x5 DUP2 LT ISZERO PUSH2 0x5B5 JUMPI DUP2 PUSH1 0x1 PUSH1 0x0 DUP4 DUP2 MSTORE PUSH1 0x20 ADD SWAP1 DUP2 MSTORE PUSH1 0x20 ADD PUSH1 0x0 KECCAK256 SLOAD GT ISZERO PUSH2 0x5A2 JUMPI PUSH1 0x1 PUSH1 0x0 DUP3 DUP2 MSTORE PUSH1 0x20 ADD SWAP1 DUP2 MSTORE PUSH1 0x20 ADD PUSH1 0x0 KECCAK256 SLOAD SWAP2 POP DUP1 SWAP3 POP JUMPDEST DUP1 DUP1 PUSH2 0x5AD SWAP1 PUSH2 0xE68 JUMP JUMPDEST SWAP2 POP POP PUSH2 0x564 JUMP JUMPDEST POP POP SWAP1 JUMP JUMPDEST PUSH1 0x0 DUP2 MLOAD SWAP1 POP SWAP2 SWAP1 POP JUMP JUMPDEST PUSH1 0x0 DUP3 DUP3 MSTORE PUSH1 0x20 DUP3 ADD SWAP1 POP SWAP3 SWAP2 POP POP JUMP JUMPDEST PUSH1 0x0 JUMPDEST DUP4 DUP2 LT ISZERO PUSH2 0x5F4 JUMPI DUP1 DUP3 ADD MLOAD DUP2 DUP5 ADD MSTORE PUSH1 0x20 DUP2 ADD SWAP1 POP PUSH2 0x5D9 JUMP JUMPDEST PUSH1 0x0 DUP5 DUP5 ADD MSTORE POP POP POP POP JUMP JUMPDEST PUSH1 0x0 PUSH1 0x1F NOT PUSH1 0x1F DUP4 ADD AND SWAP1 POP SWAP2 SWAP1 POP JUMP JUMPDEST PUSH1 0x0 PUSH2 0x61C DUP3 PUSH2 0x5BA JUMP JUMPDEST PUSH2 0x626 DUP2 DUP6 PUSH2 0x5C5 JUMP JUMPDEST SWAP4 POP PUSH2 0x636 DUP2 DUP6 PUSH1 0x20 DUP7 ADD PUSH2 0x5D6 JUMP JUMPDEST PUSH2 0x63F DUP2 PUSH2 0x600 JUMP JUMPDEST DUP5 ADD SWAP2 POP POP SWAP3 SWAP2 POP POP JUMP JUMPDEST PUSH1 0x0 PUSH1 0x20 DUP3 ADD SWAP1 POP DUP2 DUP2 SUB PUSH1 0x0 DUP4 ADD MSTORE PUSH2 0x664 DUP2 DUP5 PUSH2 0x611 JUMP JUMPDEST SWAP1 POP SWAP3 SWAP2 POP POP JUMP JUMPDEST PUSH1 0x0 PUSH1 0x40 MLOAD SWAP1 POP SWAP1 JUMP JUMPDEST PUSH1 0x0 DUP1 REVERT JUMPDEST PUSH1 0x0 DUP1 REVERT JUMPDEST PUSH1 0x0 DUP2 SWAP1 POP SWAP2 SWAP1 POP JUMP JUMPDEST PUSH2 0x693 DUP2 PUSH2 0x680 JUMP JUMPDEST DUP2 EQ PUSH2 0x69E JUMPI PUSH1 0x0 DUP1 REVERT JUMPDEST POP JUMP JUMPDEST PUSH1 0x0 DUP2 CALLDATALOAD SWAP1 POP PUSH2 0x6B0 DUP2 PUSH2 0x68A JUMP JUMPDEST SWAP3 SWAP2 POP POP JUMP JUMPDEST PUSH1 0x0 PUSH1 0x20 DUP3 DUP5 SUB SLT ISZERO PUSH2 0x6CC JUMPI PUSH2 0x6CB PUSH2 0x676 JUMP JUMPDEST JUMPDEST PUSH1 0x0 PUSH2 0x6DA DUP5 DUP3 DUP6 ADD PUSH2 0x6A1 JUMP JUMPDEST SWAP2 POP POP SWAP3 SWAP2 POP POP JUMP JUMPDEST PUSH2 0x6EC DUP2 PUSH2 0x680 JUMP JUMPDEST DUP3 MSTORE POP POP JUMP JUMPDEST PUSH1 0x0 PUSH1 0x20 DUP3 ADD SWAP1 POP PUSH2 0x707 PUSH1 0x0 DUP4 ADD DUP5 PUSH2 0x6E3 JUMP JUMPDEST SWAP3 SWAP2 POP POP JUMP JUMPDEST PUSH1 0x0 DUP1 REVERT JUMPDEST PUSH1 0x0 DUP1 REVERT JUMPDEST PUSH32 0x4E487B7100000000000000000000000000000000000000000000000000000000 PUSH1 0x0 MSTORE PUSH1 0x41 PUSH1 0x4 MSTORE PUSH1 0x24 PUSH1 0x0 REVERT JUMPDEST PUSH2 0x74F DUP3 PUSH2 0x600 JUMP JUMPDEST DUP2 ADD DUP2 DUP2 LT PUSH8 0xFFFFFFFFFFFFFFFF DUP3 GT OR ISZERO PUSH2 0x76E JUMPI PUSH2 0x76D PUSH2 0x717 JUMP JUMPDEST JUMPDEST DUP1 PUSH1 0x40 MSTORE POP POP POP JUMP JUMPDEST PUSH1 0x0 PUSH2 0x781 PUSH2 0x66C JUMP JUMPDEST SWAP1 POP PUSH2 0x78D DUP3 DUP3 PUSH2 0x746 JUMP JUMPDEST SWAP2 SWAP1 POP JUMP JUMPDEST PUSH1 0x0 PUSH8 0xFFFFFFFFFFFFFFFF DUP3 GT ISZERO PUSH2 0x7AD JUMPI PUSH2 0x7AC PUSH2 0x717 JUMP JUMPDEST JUMPDEST PUSH2 0x7B6 DUP3 PUSH2 0x600 JUMP JUMPDEST SWAP1 POP PUSH1 0x20 DUP2 ADD SWAP1 POP SWAP2 SWAP1 POP JUMP JUMPDEST DUP3 DUP2 DUP4 CALLDATACOPY PUSH1 0x0 DUP4 DUP4 ADD MSTORE POP POP POP JUMP JUMPDEST PUSH1 0x0 PUSH2 0x7E5 PUSH2 0x7E0 DUP5 PUSH2 0x792 JUMP JUMPDEST PUSH2 0x777 JUMP JUMPDEST SWAP1 POP DUP3 DUP2 MSTORE PUSH1 0x20 DUP2 ADD DUP5 DUP5 DUP5 ADD GT ISZERO PUSH2 0x801 JUMPI PUSH2 0x800 PUSH2 0x712 JUMP JUMPDEST JUMPDEST PUSH2 0x80C DUP5 DUP3 DUP6 PUSH2 0x7C3 JUMP JUMPDEST POP SWAP4 SWAP3 POP POP POP JUMP JUMPDEST PUSH1 0x0 DUP3 PUSH1 0x1F DUP4 ADD SLT PUSH2 0x829 JUMPI PUSH2 0x828 PUSH2 0x70D JUMP JUMPDEST JUMPDEST DUP2 CALLDATALOAD PUSH2 0x839 DUP5 DUP3 PUSH1 0x20 DUP7 ADD PUSH2 0x7D2 JUMP JUMPDEST SWAP2 POP POP SWAP3 SWAP2 POP POP JUMP JUMPDEST PUSH1 0x0 DUP1 PUSH1 0x40 DUP4 DUP6 SUB SLT ISZERO PUSH2 0x859 JUMPI PUSH2 0x858 PUSH2 0x676 JUMP JUMPDEST JUMPDEST PUSH1 0x0 PUSH2 0x867 DUP6 DUP3 DUP7 ADD PUSH2 0x6A1 JUMP JUMPDEST SWAP3 POP POP PUSH1 0x20 DUP4 ADD CALLDATALOAD PUSH8 0xFFFFFFFFFFFFFFFF DUP2 GT ISZERO PUSH2 0x888 JUMPI PUSH2 0x887 PUSH2 0x67B JUMP JUMPDEST JUMPDEST PUSH2 0x894 DUP6 DUP3 DUP7 ADD PUSH2 0x814 JUMP JUMPDEST SWAP2 POP POP SWAP3 POP SWAP3 SWAP1 POP JUMP JUMPDEST PUSH1 0x0 PUSH20 0xFFFFFFFFFFFFFFFFFFFFFFFFFFFFFFFFFFFFFFFF DUP3 AND SWAP1 POP SWAP2 SWAP1 POP JUMP JUMPDEST PUSH1 0x0 PUSH2 0x8C9 DUP3 PUSH2 0x89E JUMP JUMPDEST SWAP1 POP SWAP2 SWAP1 POP JUMP JUMPDEST PUSH2 0x8D9 DUP2 PUSH2 0x8BE JUMP JUMPDEST DUP2 EQ PUSH2 0x8E4 JUMPI PUSH1 0x0 DUP1 REVERT JUMPDEST POP JUMP JUMPDEST PUSH1 0x0 DUP2 CALLDATALOAD SWAP1 POP PUSH2 0x8F6 DUP2 PUSH2 0x8D0 JUMP JUMPDEST SWAP3 SWAP2 POP POP JUMP JUMPDEST PUSH1 0x0 PUSH1 0x20 DUP3 DUP5 SUB SLT ISZERO PUSH2 0x912 JUMPI PUSH2 0x911 PUSH2 0x676 JUMP JUMPDEST JUMPDEST PUSH1 0x0 PUSH2 0x920 DUP5 DUP3 DUP6 ADD PUSH2 0x8E7 JUMP JUMPDEST SWAP2 POP POP SWAP3 SWAP2 POP POP JUMP JUMPDEST PUSH1 0x0 DUP2 ISZERO ISZERO SWAP1 POP SWAP2 SWAP1 POP JUMP JUMPDEST PUSH2 0x93E DUP2 PUSH2 0x929 JUMP JUMPDEST DUP3 MSTORE POP POP JUMP JUMPDEST PUSH1 0x0 PUSH1 0x80 DUP3 ADD SWAP1 POP PUSH2 0x959 PUSH1 0x0 DUP4 ADD DUP8 PUSH2 0x935 JUMP JUMPDEST DUP2 DUP2 SUB PUSH1 0x20 DUP4 ADD MSTORE PUSH2 0x96B DUP2 DUP7 PUSH2 0x611 JUMP JUMPDEST SWAP1 POP PUSH2 0x97A PUSH1 0x40 DUP4 ADD DUP6 PUSH2 0x6E3 JUMP JUMPDEST DUP2 DUP2 SUB PUSH1 0x60 DUP4 ADD MSTORE PUSH2 0x98C DUP2 DUP5 PUSH2 0x611 JUMP JUMPDEST SWAP1 POP SWAP6 SWAP5 POP POP POP POP POP JUMP JUMPDEST PUSH32 0x4E487B7100000000000000000000000000000000000000000000000000000000 PUSH1 0x0 MSTORE PUSH1 0x22 PUSH1 0x4 MSTORE PUSH1 0x24 PUSH1 0x0 REVERT JUMPDEST PUSH1 0x0 PUSH1 0x2 DUP3 DIV SWAP1 POP PUSH1 0x1 DUP3 AND DUP1 PUSH2 0x9DE JUMPI PUSH1 0x7F DUP3 AND SWAP2 POP JUMPDEST PUSH1 0x20 DUP3 LT DUP2 SUB PUSH2 0x9F1 JUMPI PUSH2 0x9F0 PUSH2 0x997 JUMP JUMPDEST JUMPDEST POP SWAP2 SWAP1 POP JUMP JUMPDEST PUSH32 0x546865206964206D7573742062652067726561746572206F7220657175616C20 PUSH1 0x0 DUP3 ADD MSTORE PUSH32 0x746F203000000000000000000000000000000000000000000000000000000000 PUSH1 0x20 DUP3 ADD MSTORE POP JUMP JUMPDEST PUSH1 0x0 PUSH2 0xA53 PUSH1 0x24 DUP4 PUSH2 0x5C5 JUMP JUMPDEST SWAP2 POP PUSH2 0xA5E DUP3 PUSH2 0x9F7 JUMP JUMPDEST PUSH1 0x40 DUP3 ADD SWAP1 POP SWAP2 SWAP1 POP JUMP JUMPDEST PUSH1 0x0 PUSH1 0x20 DUP3 ADD SWAP1 POP DUP2 DUP2 SUB PUSH1 0x0 DUP4 ADD MSTORE PUSH2 0xA82 DUP2 PUSH2 0xA46 JUMP JUMPDEST SWAP1 POP SWAP2 SWAP1 POP JUMP JUMPDEST PUSH32 0x546865206964206D757374206265206C657373206F7220657175616C20746F20 PUSH1 0x0 DUP3 ADD MSTORE PUSH32 0x3400000000000000000000000000000000000000000000000000000000000000 PUSH1 0x20 DUP3 ADD MSTORE POP JUMP JUMPDEST PUSH1 0x0 PUSH2 0xAE5 PUSH1 0x21 DUP4 PUSH2 0x5C5 JUMP JUMPDEST SWAP2 POP PUSH2 0xAF0 DUP3 PUSH2 0xA89 JUMP JUMPDEST PUSH1 0x40 DUP3 ADD SWAP1 POP SWAP2 SWAP1 POP JUMP JUMPDEST PUSH1 0x0 PUSH1 0x20 DUP3 ADD SWAP1 POP DUP2 DUP2 SUB PUSH1 0x0 DUP4 ADD MSTORE PUSH2 0xB14 DUP2 PUSH2 0xAD8 JUMP JUMPDEST SWAP1 POP SWAP2 SWAP1 POP JUMP JUMPDEST PUSH32 0x416C72656164792063686F6F7365206120636F757273652E0000000000000000 PUSH1 0x0 DUP3 ADD MSTORE POP JUMP JUMPDEST PUSH1 0x0 PUSH2 0xB51 PUSH1 0x18 DUP4 PUSH2 0x5C5 JUMP JUMPDEST SWAP2 POP PUSH2 0xB5C DUP3 PUSH2 0xB1B JUMP JUMPDEST PUSH1 0x20 DUP3 ADD SWAP1 POP SWAP2 SWAP1 POP JUMP JUMPDEST PUSH1 0x0 PUSH1 0x20 DUP3 ADD SWAP1 POP DUP2 DUP2 SUB PUSH1 0x0 DUP4 ADD MSTORE PUSH2 0xB80 DUP2 PUSH2 0xB44 JUMP JUMPDEST SWAP1 POP SWAP2 SWAP1 POP JUMP JUMPDEST PUSH1 0x0 DUP2 SWAP1 POP DUP2 PUSH1 0x0 MSTORE PUSH1 0x20 PUSH1 0x0 KECCAK256 SWAP1 POP SWAP2 SWAP1 POP JUMP JUMPDEST PUSH1 0x0 PUSH1 0x20 PUSH1 0x1F DUP4 ADD DIV SWAP1 POP SWAP2 SWAP1 POP JUMP JUMPDEST PUSH1 0x0 DUP3 DUP3 SHL SWAP1 POP SWAP3 SWAP2 POP POP JUMP JUMPDEST PUSH1 0x0 PUSH1 0x8 DUP4 MUL PUSH2 0xBE9 PUSH32 0xFFFFFFFFFFFFFFFFFFFFFFFFFFFFFFFFFFFFFFFFFFFFFFFFFFFFFFFFFFFFFFFF DUP3 PUSH2 0xBAC JUMP JUMPDEST PUSH2 0xBF3 DUP7 DUP4 PUSH2 0xBAC JUMP JUMPDEST SWAP6 POP DUP1 NOT DUP5 AND SWAP4 POP DUP1 DUP7 AND DUP5 OR SWAP3 POP POP POP SWAP4 SWAP3 POP POP POP JUMP JUMPDEST PUSH1 0x0 DUP2 SWAP1 POP SWAP2 SWAP1 POP JUMP JUMPDEST PUSH1 0x0 PUSH2 0xC30 PUSH2 0xC2B PUSH2 0xC26 DUP5 PUSH2 0x680 JUMP JUMPDEST PUSH2 0xC0B JUMP JUMPDEST PUSH2 0x680 JUMP JUMPDEST SWAP1 POP SWAP2 SWAP1 POP JUMP JUMPDEST PUSH1 0x0 DUP2 SWAP1 POP SWAP2 SWAP1 POP JUMP JUMPDEST PUSH2 0xC4A DUP4 PUSH2 0xC15 JUMP JUMPDEST PUSH2 0xC5E PUSH2 0xC56 DUP3 PUSH2 0xC37 JUMP JUMPDEST DUP5 DUP5 SLOAD PUSH2 0xBB9 JUMP JUMPDEST DUP3 SSTORE POP POP POP POP JUMP JUMPDEST PUSH1 0x0 SWAP1 JUMP JUMPDEST PUSH2 0xC73 PUSH2 0xC66 JUMP JUMPDEST PUSH2 0xC7E DUP2 DUP5 DUP5 PUSH2 0xC41 JUMP JUMPDEST POP POP POP JUMP JUMPDEST JUMPDEST DUP2 DUP2 LT ISZERO PUSH2 0xCA2 JUMPI PUSH2 0xC97 PUSH1 0x0 DUP3 PUSH2 0xC6B JUMP JUMPDEST PUSH1 0x1 DUP2 ADD SWAP1 POP PUSH2 0xC84 JUMP JUMPDEST POP POP JUMP JUMPDEST PUSH1 0x1F DUP3 GT ISZERO PUSH2 0xCE7 JUMPI PUSH2 0xCB8 DUP2 PUSH2 0xB87 JUMP JUMPDEST PUSH2 0xCC1 DUP5 PUSH2 0xB9C JUMP JUMPDEST DUP2 ADD PUSH1 0x20 DUP6 LT ISZERO PUSH2 0xCD0 JUMPI DUP2 SWAP1 POP JUMPDEST PUSH2 0xCE4 PUSH2 0xCDC DUP6 PUSH2 0xB9C JUMP JUMPDEST DUP4 ADD DUP3 PUSH2 0xC83 JUMP JUMPDEST POP POP JUMPDEST POP POP POP JUMP JUMPDEST PUSH1 0x0 DUP3 DUP3 SHR SWAP1 POP SWAP3 SWAP2 POP POP JUMP JUMPDEST PUSH1 0x0 PUSH2 0xD0A PUSH1 0x0 NOT DUP5 PUSH1 0x8 MUL PUSH2 0xCEC JUMP JUMPDEST NOT DUP1 DUP4 AND SWAP2 POP POP SWAP3 SWAP2 POP POP JUMP JUMPDEST PUSH1 0x0 PUSH2 0xD23 DUP4 DUP4 PUSH2 0xCF9 JUMP JUMPDEST SWAP2 POP DUP3 PUSH1 0x2 MUL DUP3 OR SWAP1 POP SWAP3 SWAP2 POP POP JUMP JUMPDEST PUSH2 0xD3C DUP3 PUSH2 0x5BA JUMP JUMPDEST PUSH8 0xFFFFFFFFFFFFFFFF DUP2 GT ISZERO PUSH2 0xD55 JUMPI PUSH2 0xD54 PUSH2 0x717 JUMP JUMPDEST JUMPDEST PUSH2 0xD5F DUP3 SLOAD PUSH2 0x9C6 JUMP JUMPDEST PUSH2 0xD6A DUP3 DUP3 DUP6 PUSH2 0xCA6 JUMP JUMPDEST PUSH1 0x0 PUSH1 0x20 SWAP1 POP PUSH1 0x1F DUP4 GT PUSH1 0x1 DUP2 EQ PUSH2 0xD9D JUMPI PUSH1 0x0 DUP5 ISZERO PUSH2 0xD8B JUMPI DUP3 DUP8 ADD MLOAD SWAP1 POP JUMPDEST PUSH2 0xD95 DUP6 DUP3 PUSH2 0xD17 JUMP JUMPDEST DUP7 SSTORE POP PUSH2 0xDFD JUMP JUMPDEST PUSH1 0x1F NOT DUP5 AND PUSH2 0xDAB DUP7 PUSH2 0xB87 JUMP JUMPDEST PUSH1 0x0 JUMPDEST DUP3 DUP2 LT ISZERO PUSH2 0xDD3 JUMPI DUP5 DUP10 ADD MLOAD DUP3 SSTORE PUSH1 0x1 DUP3 ADD SWAP2 POP PUSH1 0x20 DUP6 ADD SWAP5 POP PUSH1 0x20 DUP2 ADD SWAP1 POP PUSH2 0xDAE JUMP JUMPDEST DUP7 DUP4 LT ISZERO PUSH2 0xDF0 JUMPI DUP5 DUP10 ADD MLOAD PUSH2 0xDEC PUSH1 0x1F DUP10 AND DUP3 PUSH2 0xCF9 JUMP JUMPDEST DUP4 SSTORE POP JUMPDEST PUSH1 0x1 PUSH1 0x2 DUP9 MUL ADD DUP9 SSTORE POP POP POP JUMPDEST POP POP POP POP POP POP JUMP JUMPDEST PUSH32 0x4E487B7100000000000000000000000000000000000000000000000000000000 PUSH1 0x0 MSTORE PUSH1 0x11 PUSH1 0x4 MSTORE PUSH1 0x24 PUSH1 0x0 REVERT JUMPDEST PUSH1 0x0 PUSH2 0xE3F DUP3 PUSH2 0x680 JUMP JUMPDEST SWAP2 POP PUSH2 0xE4A DUP4 PUSH2 0x680 JUMP JUMPDEST SWAP3 POP DUP3 DUP3 ADD SWAP1 POP DUP1 DUP3 GT ISZERO PUSH2 0xE62 JUMPI PUSH2 0xE61 PUSH2 0xE05 JUMP JUMPDEST JUMPDEST SWAP3 SWAP2 POP POP JUMP JUMPDEST PUSH1 0x0 PUSH2 0xE73 DUP3 PUSH2 0x680 JUMP JUMPDEST SWAP2 POP PUSH32 0xFFFFFFFFFFFFFFFFFFFFFFFFFFFFFFFFFFFFFFFFFFFFFFFFFFFFFFFFFFFFFFFF DUP3 SUB PUSH2 0xEA5 JUMPI PUSH2 0xEA4 PUSH2 0xE05 JUMP JUMPDEST JUMPDEST PUSH1 0x1 DUP3 ADD SWAP1 POP SWAP2 SWAP1 POP JUMP INVALID JUMPDEST ADDRESS ADDRESS ADDRESS BALANCE 0x5D KECCAK256 MSIZE PUSH16 0x752061726520696E2074686520776169 PUSH21 0x696E67206C697374215B303030305D20596F752072 PUSH6 0x676973746572 KECCAK256 PUSH21 0x686520636F75727365207375636365737366756C6C PUSH26 0xA26469706673582212200FB681CD6AB04BD027711472268F5580 RETURN PUSH18 0xC415176507094161E6B5008FD72664736F6C PUSH4 0x43000811 STOP CALLER "
				},
				"gasEstimates": {
					"creation": {
						"codeDepositCost": "778400",
						"executionCost": "infinite",
						"totalCost": "infinite"
					},
					"external": {
						"MostPopularCourseId()": "infinite",
						"courses(uint256)": "infinite",
						"register(uint256,string)": "infinite",
						"result()": "infinite",
						"student(address)": "infinite"
					},
					"internal": {
						"mostPopularCourse()": "infinite"
					}
				},
				"methodIdentifiers": {
					"MostPopularCourseId()": "e6f7eb7c",
					"courses(uint256)": "96f979d2",
					"register(uint256,string)": "a00fd3c8",
					"result()": "65372147",
					"student(address)": "daadd00f"
				}
			},
			"storageLayout": {
				"storage": [
					{
						"astId": 21,
						"contract": "Registration.sol:SubjectRegistration",
						"label": "student",
						"offset": 0,
						"slot": "0",
						"type": "t_mapping(t_address,t_struct(Student)16_storage)"
					},
					{
						"astId": 25,
						"contract": "Registration.sol:SubjectRegistration",
						"label": "courses",
						"offset": 0,
						"slot": "1",
						"type": "t_mapping(t_uint256,t_uint256)"
					}
				],
				"types": {
					"t_address": {
						"encoding": "inplace",
						"label": "address",
						"numberOfBytes": "20"
					},
					"t_bool": {
						"encoding": "inplace",
						"label": "bool",
						"numberOfBytes": "1"
					},
					"t_mapping(t_address,t_struct(Student)16_storage)": {
						"encoding": "mapping",
						"key": "t_address",
						"label": "mapping(address => struct SubjectRegistration.Student)",
						"numberOfBytes": "32",
						"value": "t_struct(Student)16_storage"
					},
					"t_mapping(t_uint256,t_uint256)": {
						"encoding": "mapping",
						"key": "t_uint256",
						"label": "mapping(uint256 => uint256)",
						"numberOfBytes": "32",
						"value": "t_uint256"
					},
					"t_string_storage": {
						"encoding": "bytes",
						"label": "string",
						"numberOfBytes": "32"
					},
					"t_struct(Student)16_storage": {
						"encoding": "inplace",
						"label": "struct SubjectRegistration.Student",
						"members": [
							{
								"astId": 9,
								"contract": "Registration.sol:SubjectRegistration",
								"label": "registered",
								"offset": 0,
								"slot": "0",
								"type": "t_bool"
							},
							{
								"astId": 11,
								"contract": "Registration.sol:SubjectRegistration",
								"label": "studentID",
								"offset": 0,
								"slot": "1",
								"type": "t_string_storage"
							},
							{
								"astId": 13,
								"contract": "Registration.sol:SubjectRegistration",
								"label": "courseID",
								"offset": 0,
								"slot": "2",
								"type": "t_uint256"
							},
							{
								"astId": 15,
								"contract": "Registration.sol:SubjectRegistration",
								"label": "result",
								"offset": 0,
								"slot": "3",
								"type": "t_string_storage"
							}
						],
						"numberOfBytes": "128"
					},
					"t_uint256": {
						"encoding": "inplace",
						"label": "uint256",
						"numberOfBytes": "32"
					}
				}
			},
			"userdoc": {
				"kind": "user",
				"methods": {},
				"version": 1
			}
		}
	}
}